:10000000FCFF0320AD3D0000653D0000653D0000A4
:10001000653D0000653D0000653D0000653D000058
:10002000653D0000653D0000653D0000653D000048
:10003000653D0000653D0000653D0000653D000038
:10004000653D0000653D0000653D0000653D000028
:10005000653D0000653D0000653D0000653D000018
:10006000653D0000653D0000653D0000653D000008
:10007000653D0000653D0000653D0000653D0000F8
:10008000653D0000653D0000653D0000653D0000E8
:10009000653D0000653D0000653D0000653D0000D8
:1000A000653D0000653D0000653D0000653D0000C8
:1000B000653D0000653D0000653D0000653D0000B8
:1000C000653D0000653D0000653D0000653D0000A8
:1000D000653D0000653D0000653D0000653D000098
:1000E000653D0000653D0000653D0000653D000088
:1000F000653D0000653D0000653D0000653D000078
:10010000653D0000653D0000653D0000653D000067
:10011000653D0000653D0000653D0000653D000057
:10012000653D0000653D0000653D0000653D000047
:10013000653D0000653D0000653D0000653D000037
:10014000653D0000653D0000653D0000653D000027
:10015000653D0000653D0000653D0000653D000017
:10016000653D0000653D0000653D0000653D000007
:10017000653D0000653D0000653D0000653D0000F7
:10018000653D0000653D0000653D0000653D0000E7
:10019000653D0000653D0000653D0000653D0000D7
:1001A000653D0000653D0000653D0000653D0000C7
:1001B000653D0000653D0000653D0000653D0000B7
:1001C000653D0000653D0000653D0000653D0000A7
:1001D000653D0000653D0000653D0000653D000097
:1001E000653D0000653D0000653D0000653D000087
:1001F000653D0000653D0000653D0000653D000077
:08020000653D0000653D0000B2
:103DAC0000F010F8FFF7DCFF01F046F9FFF7EEFF2B
:103DBC0001F002F9FFF7AAFEFFF784FFFFF712FFED
:043DCC00FCE7FEE72B
:103BDC0081B01CF8019B0BF8019BBBEB0A0FF8D1D1
:043BEC0001B070476D
:103BA00081B04FF000094FF0000CBDEB0A0F04DCB0
:103BB000BDEB0B0F01DBD446EA464BF8049BBBEB95
:103BC0000A0FFAD1BCEB0A0F05DDE246D9F800B0C6
:0A3BD0000BF1040BF1E701B07047A0
:103B180081B0CDF800E0012200210020FFF724FE4B
:103B2800002201210020FFF71FFE002202210020B1
:103B3800FFF71AFE012207210020FFF715FE1248A1
:103B480001460020FFF718FF4FF4E1312020FFF76E
:103B580067FD40F6FE07C0F23D077F1EFDD100BF9E
:103B680000BF00BF00BF00BF08480221FFF7C4FD27
:103B780007480221FFF7C0FD06480221FFF7BCFDF8
:103B8800DDF800E001B07047DC170000FA070020FC
:083B98002A0800205A08002051
:1037700081B0CDF800E05FFA81FA5FFA82FB0FE0DA
:103780005FFA8BF15FFA8AF0FEF778FB0DE05FFAE3
:103790008BF15FFA8AF0FEF749FC06E0012004E0B5
:1037A0000028EDD00128F2D0F8E7DDF800E001B004
:0237B000704760
:101E7C0081B0CDF800E091E0012904D110215A483D
:101E8C00FFF7A0FD03E010215748FFF771FDA5E017
:101E9C00012904D101215448FFF794FD03E00121ED
:101EAC005148FFF765FD99E0012904D101214F4804
:101EBC00FFF788FD03E001214C48FFF759FD8DE049
:101ECC00012904D104214A48FFF77CFD03E00421D9
:101EDC004748FFF74DFD81E0012904D120214448FA
:101EEC00FFF770FD03E020214148FFF741FD75E04D
:101EFC00012904D110213E48FFF764FD03E01021B5
:101F0C003B48FFF735FD69E0012904D1012139482F
:101F1C00FFF758FD03E001213648FFF729FD5DE08E
:101F2C00012904D110213448FFF74CFD03E01021A6
:101F3C003148FFF71DFD51E0012904D140212F4804
:101F4C00FFF740FD03E040212C48FFF711FD45E071
:101F5C00012904D180212948FFF734FD03E08021B9
:101F6C002648FFF705FD39E0012904D104211F485B
:101F7C00FFF728FD03E004211C48FFF7F9FC2DE0D6
:101F8C00012904D108211948FFF71CFD03E00821A1
:101F9C001648FFF7EDFC21E0012020E000283FF47B
:101FAC006BAF01283FF474AF02283FF47DAF0328D8
:101FBC003FF486AF04283FF48FAF05283FF498AF69
:101FCC0006283FF4A1AF0728AAD00828B4D00928C6
:101FDC00BED00A28C8D00B28D2D0DDE70020DDF80F
:101FEC0000E001B0704700BF00C005400090054004
:101FFC000080054000B0054000D0054000A0054021
:1019D00081B0CDF800E0002440F240031BB240F299
:1019E000001212B21A4393B2002210B4FFF77CFB2C
:0A19F00001B0DDF800E001B070471F
:1010E80082B0CDF800E05FFA81F8D5B29FB29DF8E2
:1010F8000830F54C00EA0404A1462046FFF7DCF866
:10110800F24CA54208D109F580666FEA0805EDB2F0
:1011180034682C40346008E0ED4CA54205D109F54F
:1011280080652C6844EA08042C6040F2010407EA50
:101138000404A4B234B109F5A2652C6844EA080491
:101148002C6007E009F5A2666FEA0805EDB234687D
:101158002C40346040F2020407EA0404A4B234B11B
:1011680009F214552C6844EA08042C6007E009F2D7
:1011780014566FEA0805EDB234682C40346040F22A
:10118800080407EA0404A4B234B109F20C552C6827
:1011980044EA08042C6007E009F20C566FEA0805D7
:1011A800EDB234682C40346040F2100407EA0404BD
:1011B800A4B234B109F5A0652C6844EA08042C608F
:1011C80007E009F5A0666FEA0805EDB234682C401F
:1011D800346040F2200407EA0404A4B234B109F2EE
:1011E80004552C6844EA08042C6007E009F2045608
:1011F8006FEA0805EDB234682C40346040F24004D0
:1012080007EA0404A4B234B109F5A1652C6844EADC
:1012180008042C6007E009F5A1666FEA0805EDB23D
:1012280034682C40346041F2000407EA0404A4B294
:10123800012C13D042F2000407EA0404A4B2012CE2
:101248000CD044F2000407EA0404A4B2012C05D02F
:10125800DEB24B46B8B25FFA88F53CE000200026C3
:10126800DAB2BBB207465FFA88F04946082E13D2B5
:1012780020FA06F4E4B204F00104E4B24CB17500BB
:101288002DB2032424B2AC4024B247EA04052F4609
:10129800FFE7761CF6B2E9E701F6C476FD43346849
:1012A8002C40346001F23C56C543EDB234682C4002
:1012B800346001F5A166C543EDB234682C40346052
:1012C80001F20456C543EDB234682C403460C5B20F
:1012D80098B20B46D6B2002141F2000400EA040499
:1012E800A4B23CB300220F46E9B2082A13D221FA6D
:1012F80002F4E4B204F00104E4B24CB155002DB29A
:10130800012424B2AC4024B247EA04052F46FFE783
:10131800521CD2B2E9E703F6C4752C683C432C6032
:1013280003F5A1652C680C432C603D461F4683B22B
:10133800C8B203E01F4683B2E8B20D4642F2000489
:1013480003EA0404A4B26CB30022A8463946082A6A
:1013580013D220FA02F4E4B204F00104E4B24CB16E
:1013680055002DB2032424B2AC4024B248EA040547
:10137800A846FFE7521CD2B2E9E701F6C4752C680B
:1013880044EA08042C6001F23C552C6804432C60A4
:1013980001F5A1652C6804432C60F7B20E46C2B271
:1013A80098B205E00197C2B298B2F7B2A846019E7A
:1013B80044F2000400EA0404A4B284B30023D1B2C6
:1013C800082B14D221FA03F4E4B204F00104E4B2C5
:1013D80054B15D002DB2032424B2AC4024B248EAD3
:1013E800040422469046FFE75B1CDBB2E8E706F6FA
:1013F800C4752C6844EA08042C6006F23C552C6835
:101408000C432C6006F5A1652C680C432C6006F291
:1014180004552C680C432C60FBB2324602E0D1B272
:101428003246FBB240F2800400EA0404A4B274B16C
:1014380040F2400400EA0404A4B22CB102F5A3650A
:101448002C680C432C6001E00120FAE006E002F56C
:10145800A366CD43EDB234682C40346040F20014EA
:1014680000EA0404A4B22CB102F21C552C680C4307
:101478002C6006E002F21C56CD43EDB234682C40D5
:10148800346040F2002400EA0404A4B2002C3AD0EC
:10149800104CA24240F2000500D001250E4CA24299
:1014A80040F2000400D0012425400C4CA24240F236
:1014B800000400D001242540094CA24240F2000457
:1014C80000D0012425400DE000F0FFFF00000000DF
:1014D8000100000000C0054000B005400090054034
:1014E80000100640594CA24240F2000400D00124EA
:1014F80005EA04040CB10120A3E002F5A5652C68F7
:101508000C432C602AE0524CA24240F2000500D164
:101518000125504CA24240F2000400D10124254389
:101528004D4CA24240F2000400D1012425434B4C0B
:10153800A24240F2000400D101242543434CA242B8
:1015480040F2000400D1012445EA040434B102F554
:10155800A566CD43EDB234682C40346040F60004F3
:1015680000EA0404A4B22CB102F5A6652C680C4369
:101578002C6006E002F5A666CD43EDB234682C4037
:10158800346040F2004400EA0404A4B22CB102F52D
:1015980084652C680C432C6006E002F58466CD4314
:1015A800EDB234682C4034600BB9002049E00F2BB1
:1015B80001D9012045E0002700208DF80430C3B28E
:1015C80010469DF80420082B12D221FA03F4E4B245
:1015D80004F00104E4B244B19D002DB24FF00F04B1
:1015E800AC4047EA04052F46FFE75B1CDBB2EAE79D
:1015F80000F22C56FD4334682C403460002600234A
:101608008DF80430CBB29DF80410082913D223FAC0
:1016180001F4E4B204F00104E4B24CB1D5B28C0098
:1016280024B205FA04F446EA040425462E46FFE7E8
:10163800491CC9B2E9E700F22C552C6834432C60E8
:101648000020DDF800E002B0704700BF00500640FF
:1016580000C0054000B0054000900540001006405D
:1002C00081B0664900EA010108467DE06449096899
:1002D00041F0010262490A60BEE06149096841F0EB
:1002E00002025F490A60B7E05D49096841F0040213
:1002F0005B490A60B0E05A49096841F00802584970
:100300000A60A9E05649096841F0100254490A60A0
:10031000A2E05349096841F0200251490A609BE07C
:100320004F49096841F040024D490A6094E04C4948
:10033000096841F080024A490A608DE0484909682D
:1003400041F4807246490A6086E04549096841F4F3
:10035000007243490A607FE04149096841F48062C4
:100360003F490A6078E03E49096841F400623C492F
:100370000A6071E03A49096841F4805238490A60DC
:100380006AE03749096841F4005235490A6063E080
:100390003349096841F4804231490A605CE03049E0
:1003A000096841F400422E490A6055E02C49096869
:1003B00041F480322A490A604EE02949096841F433
:1003C000003227490A6047E0264988423FF47EAF61
:1003D000254988423FF481AF244988423FF484AFE5
:1003E000234988423FF487AF224988423FF48AAFCD
:1003F000214988423FF48DAF204988423FF490AFB5
:100400001F4988423FF493AF1E4988423FF496AF9C
:100410001D4988423FF499AF1C4988423FF49CAF84
:100420001B4988423FF49FAF1A4988423FF4A2AF6C
:10043000194988423FF4A5AF184988423FF4A8AF54
:10044000174988423FF4ABAF164988423FF4AEAF3C
:10045000154988423FF4B1AF01B0704700F0FFFF8B
:1004600008E60F40008005400090054000A00540D0
:1004700000B0054000C0054000D0054000E0054048
:1004800000F0054000000640001006400020064035
:100490000030064000400640005006400060064024
:0C04A000007006400080064000900640FE
:10197C0081B0CDF800E0002440F240031BB240F2ED
:10198C00001212B21A4393B2012210B4FFF7A6FB55
:0A199C0001B0DDF800E001B0704773
:10202C0081B0CDF800E091E0012904D120215A487B
:10203C00FFF7C8FC03E020215748FFF799FCA5E007
:10204C00012904D102215448FFF7BCFC03E0022112
:10205C005148FFF78DFC99E0012904D120214F480C
:10206C00FFF7B0FC03E020214C48FFF781FC8DE02A
:10207C00012904D104214A48FFF7A4FC03E0042100
:10208C004748FFF775FC81E0012904D12021444821
:10209C00FFF798FC03E020214148FFF769FC75E04D
:1020AC00012904D110213E48FFF78CFC03E01021DC
:1020BC003B48FFF75DFC69E0012904D10221394856
:1020CC00FFF780FC03E002213648FFF751FC5DE08E
:1020DC00012904D140213348FFF774FC03E040216F
:1020EC003048FFF745FC51E0012904D110212E485E
:1020FC00FFF768FC03E010212B48FFF739FC45E0A3
:10210C00012904D120212848FFF75CFC03E02021A1
:10211C002548FFF72DFC39E0012904D104211F4883
:10212C00FFF750FC03E004211C48FFF721FC2DE0D5
:10213C00012904D108211948FFF744FC03E00821C8
:10214C001648FFF715FC21E0012020E000283FF4A1
:10215C006BAF01283FF474AF02283FF47DAF032826
:10216C003FF486AF04283FF48FAF05283FF498AFB7
:10217C0006283FF4A1AF0728AAD00828B4D0092814
:10218C00BED00A28C8D00B28D2D0DDE70020DDF85D
:10219C0000E001B0704700BF00C005400090054052
:0C21AC000080054000B0054000A0054088
:1039800081B0CDF800E009E00846FEF73FFB0AE011
:103990000846FFF749F806E0012004E00028F3D0CC
:0E39A0000128F5D0F8E7DDF800E001B070472F
:10200C0081B0CDF800E0016808460449FFF70AFCEE
:10201C000020DDF800E001B0704700BF7C4E0000EE
:1018300081B0CDF800E00A4601460348FFF758FAA8
:0C184000DDF800E001B07047000002403D
:100CF00083B0CDF800E001920A46014601985C4BB2
:100D0000994216D100245B4B1C60012464B25A4BFB
:100D10001C605A4C5A4B1C605A4C5B4B1C605B4C21
:100D20005B4B1C605B4C5C4B1C605C4C5C4B1C600C
:100D300065E15C4B994216D100245B4B1C60012499
:100D400064B25A4B1C605A4C4D4B1C60594C4E4B74
:100D50001C60594C4E4B1C60584C4F4B1C60584CFF
:100D60004F4B1C604BE1574B994216D10024564B18
:100D70001C60012464B2554B1C60554C404B1C60F8
:100D8000544C414B1C60544C414B1C60534C424BE7
:100D90001C60534C424B1C6031E1524B994216D1BE
:100DA0000024514B1C60012464B2504B1C60504C19
:100DB000334B1C604F4C344B1C604F4C344B1C600D
:100DC0004E4C354B1C604E4C354B1C6017E14D4B67
:100DD000994216D100244C4B1C60012464B24B4B49
:100DE0001C604B4C264B1C604A4C274B1C604A4CE9
:100DF000274B1C60494C284B1C60494C284B1C60FD
:100E0000FDE0484B994216D10024474B1C60012459
:100E100064B2464B1C60464C194B1C60454C1A4B47
:100E20001C60454C1A4B1C60444C1B4B1C60444CD2
:100E30001B4B1C60E3E0434B994216D10024424B0C
:100E40001C60012464B2414B1C60414C0C4B1C6083
:100E5000404C0D4B1C60404C0D4B1C603F4C0E4BEE
:100E60001C603F4C0E4B1C60C9E03E4B99427BE03E
:100E700000000240C00C002000C4FC43FFFFFFFF45
:100E80005C0D0020D1090000600D0020E50B000082
:100E9000640D0020B9080000680D0020FFFFFFFF6F
:100EA0006C0D002000100240C40C002004C4FC4360
:100EB000FFFFFFFFB5090000C90B00000D0900008E
:100EC000FFFFFFFF00200240C80C002008C4FC43C5
:100ED000FFFFFFFF990900003D0B000061090000C2
:100EE000FFFFFFFF00300240CC0C00200CC4FC438D
:100EF000FFFFFFFFED090000B10A000045090000F7
:100F0000FFFFFFFF00000C40D00C002010C4FC438A
:100F1000FFFFFFFF410A0000950A000029090000B9
:100F2000FFFFFFFF00100C40D40C002014C4FC4352
:100F3000FFFFFFFF250A0000790A00005D0A00009C
:100F4000FFFFFFFF00200C40D80C002018C4FC431A
:100F5000FFFFFFFF090A0000CD0A0000910B00000F
:100F6000FFFFFFFF00300C4016D10024414B1C60F6
:100F7000012464B2404B1C60404C414B1C60414C0E
:100F8000414B1C60414C424B1C60424C424B1C602C
:100F9000424C434B1C6032E0424B994216D1002434
:100FA000414B1C60012464B2404B1C60404C344BEC
:100FB0001C60404C344B1C603F4C354B1C603F4C1C
:100FC000354B1C603E4C364B1C6018E03D4B994243
:100FD00015D100243C4B1C60012464B23B4B1C60C7
:100FE0003B4C274B1C603B4C274B1C603A4C284B1E
:100FF0001C603A4C284B1C60394C294B1C600192F8
:101000000291FFF713F90299019A01F220041023CB
:101010002360344B9A4207D106260D1D01242B680C
:1010200064F304132B6006E014260D1D00242B68C6
:1010300064F304132B60FFF7F3F840F2E83300FB8E
:1010400003F506FB02F4B5FBF4F318466343EB1A11
:101050000BB9401EFFE77F2801D97F20FFE7012859
:1010600001D20120FFE701F20C031860DDF800E077
:1010700003B07047DC0C00201CC4FC43FFFFFFFFE3
:101080005C0D00207D090000600D0020210B000098
:10109000640D0020750B0000680D0020FFFFFFFFAE
:1010A0006C0D002000800B40E00C002020C4FC43AD
:1010B000FFFFFFFFF1080000050B0000590B0000C7
:1010C000FFFFFFFF00900B40E40C002024C4FC4312
:1010D000FFFFFFFFD5080000E90A0000AD0B00008C
:0810E000FFFFFFFFD0CF32003B
:10022C0081B0CDF800E040F2000B82460AF1D80113
:10023C0009788B4539D20C210BFB01F10AEB01013A
:10024C008C460CF108010978A9B90CF10801097860
:10025C00CCB20CF1060109888BB20CF104010978BF
:10026C00CAB2DCF800100846D1B2002210B400F07B
:10027C0035FF01B014E00CF108010978CCB20CF197
:10028C00060109888BB20CF104010978CAB2DCF8BA
:10029C0000100846D1B20F2210B400F01FFF01B0BD
:1002AC000BF1010B5FFA8BFBC0E7DDF800E001B04E
:0202BC00704789
:0C02200001480068704700BF580D002026
:102A280081B0CDF800E0016808460449FEF7FCFED5
:102A38000020DDF800E001B0704700BF7C4E0000C8
:1036280081B0CDF800E011E00846FFF775FA16E022
:103638000846FFF7E7F812E00846FFF7B7F80EE08C
:103648000846FFF7F1F80AE0012008E00028EBD06F
:103658000128EDD02028EFD03028F1D0F4E7DDF8AC
:0636680000E001B0704714
:102B200081B0CDF800E0FEF7E9FF044A04490A60ED
:102B30000020DDF800E001B0704700BFE11C00009C
:042B4000380D00202C
:101AFC0082B0CDF800E00346214A22490A60224A0E
:101B0C0022490A60224A23490A60234A23490A606F
:101B1C0001932348FEF784FB019B012252B2214919
:101B2C000A6000BF00BF00BFFFF794F8FEF772FB1E
:101B3C0040F2E83100FB01F210461901914205D93F
:101B4C00012252B218490A605A0804E0002252B22B
:101B5C0015490A601A46C100B1FBF2F1491C4B0849
:101B6C009A0912490A6003F03F0211490A60602287
:101B7C0010490A60FFF75CF8DDF800E002B070472E
:101B8C00E11C0000980D0020693A0000340D002083
:101B9C00593A0000300D0020453A00009C0D002001
:101BAC00C44C000014C3FC43140622422410014010
:081BBC00281001402C1001402B
:100C600081B0002149B20448016004480160044891
:100C7000016001B0704700BF0006224220062242F8
:040C800024062242E2
:100C3C0081B0012149B204480160044801600448B4
:100C4C00016001B0704700BF00062242200622421C
:040C5C002406224206
:10280C0081B0CDF800E0FFF7D7F9044A04490A601B
:10281C000020DDF800E001B0704700BF191D00007A
:04282C00380D002043
:101BC40082B0CDF800E00346214A22490A60224A45
:101BD40022490A60224A23490A60234A23490A60A7
:101BE40001932348FEF720FB019B012252B22149B5
:101BF4000A6000BF00BF00BFFFF70CF8FEF70EFB42
:101C040040F2E83100FB01F210461901914205D976
:101C1400012252B218490A605A0804E0002252B262
:101C240015490A601A46C100B1FBF2F1491C4B0880
:101C34009A0912490A6003F03F0211490A606022BE
:101C440010490A60FFF740F8DDF800E002B0704781
:101C5400191D0000980D0020412C0000340D0020B7
:101C64005D2C0000300D0020812C00009C0D002014
:101C7400E84B00001CC3FC431406264224300140F8
:081C8400283001402C30014022
:100C180081B0002149B204480160044801600448D9
:100C2800016001B0704700BF000626422006264238
:040C38002406264226
:100CCC0081B0012149B20448016004480160044824
:100CDC00016001B0704700BF000626422006264284
:040CEC002406264272
:1027B40081B0CDF800E0FFF73BF9044A04490A6010
:1027C4000020DDF800E001B0704700BF691600008A
:0427D400380D00209C
:101A340082B0CDF800E00346214A22490A60224AD6
:101A440022490A60224A23490A60234A23490A6038
:101A540001932348FEF7E8FB019B012252B221497E
:101A64000A6000BF00BF00BFFFF71CF9FEF7D6FBFA
:101A740040F2E83100FB01F210461901914205D908
:101A8400012252B218490A605A0804E0002252B2F4
:101A940015490A601A46C100B1FBF2F1491C4B0812
:101AA4009A0912490A6003F03F0211490A60602250
:101AB40010490A60FFF7E4F8DDF800E002B070476F
:101AC40069160000980D0020953A0000340D00209E
:101AD400D53A0000300D0020E53A00009C0D0020AE
:101AE400A04D000008C3FC4314061C4224E000403F
:081AF40028E000402CE0004056
:100CA80081B0002149B20448016004480160044849
:100CB800016001B0704700BF00061C4220061C42BC
:040CC80024061C42A0
:100C840081B0012149B2044801600448016004486C
:100C9400016001B0704700BF00061C4220061C42E0
:040CA40024061C42C4
:1028300081B0CDF800E0FFF7C5F9044A04490A6009
:102840000020DDF800E001B0704700BF191D000056
:04285000380D00201F
:1037000083B0CDF800E0024610460D228DF8082067
:103710000A228DF809201FE0FFF74EF923E0027816
:103720002AB10190FFF748F90198401CF7E71AE029
:1037300002782AB10190FFF73FF90198401CF7E7A2
:1037400002AA1046FFF738F90DF109021046FFF7FB
:1037500033F908E0062007E00029DDD00129DED09A
:103760000229E5D0F6E70020DDF800E003B070475D
:1029B80081B0CDF800E00178CCB2A0B2034C246815
:1029C800A0470020DDF800E001B07047380D002076
:1019FC0081B00449096801B1FBE70349086001B0F3
:0C1A0C00704700BF1403184200C00040E7
:101A180081B00449096801B1FBE70349086001B0D6
:0C1A2800704700BF14031A4200D00040B9
:1016680081B00449096801B1FBE70349086001B08A
:0C167800704700BF14031C4200E000405B
:1017A80081B00449096801B1FBE70349086001B049
:0C17B800704700BF14031E4200F0004008
:101D4C0081B00449096801B1FBE70349086001B09F
:0C1D5C00704700BF14032042000001404B
:101CE00081B00449096801B1FBE70349086001B00C
:0C1CF000704700BF1403224200100140A6
:101CFC0081B00449096801B1FBE70349086001B0F0
:0C1D0C00704700BF140324420020014077
:101D180081B00449096801B1FBE70349086001B0D3
:0C1D2800704700BF140326420030014049
:103CD00081B0CDF800E0102219491A48FFF768FEBC
:103CE00042F6FE47C0F231177F1EFDD100BF00BF74
:103CF00000BF00BF00BFFFF7BBFCFFF75BFD124832
:103D00000078FFF727FC11480078FFF7FBFB10480D
:103D10000088FFF7D3FB0F480078FFF73FFC0E4801
:103D20000221FFF7EDFC0D480221FFF7E9FC0C48EA
:103D30000221FFF7E5FCDDF800E001B0704700BFAD
:103D4000B84F0000584F0000900B0020910B00204E
:103D5000920B0020940B0020950B0020C50B002037
:043D6000F50B00203F
:1039B00081B0CDF800E00446054B1A700846FFF7C9
:1039C0009BF82046FFF708F8DDF800E001B07047EB
:0439D0002F0D002097
:102AF800026806490A60011D0A6805490A6000F271
:102B080008010A6803490A60704700BF3C0D0020AD
:082B1800540D0020400D0020C7
:1029D80000F230031A6808490A6003F21C010A6809
:1029E80006490A6000F208010A6805490A60011DE3
:1029F8000A6804490A6070474C0D0020500D0020F9
:082A0800480D0020440D0020E0
:1036700089B0CDF800E0FFF7AFF8FFF741F901A8F6
:10368000FFF7E8F801A840F200034BF6FF7240F2A2
:103690000501FFF7BDF901A848F2000347F6FF72E4
:1036A00040F20501FFF7B4F901A8FFF7CDF9FEF7E5
:1036B00097FB01A8FFF7CEF801A840F201034FF6EF
:1036C000FE7240F20001FFF7A3F901A840F20003E7
:1036D0004FF6BF7240F20001FFF79AF901A844F2D9
:1036E00000034BF6FF7240F20001FFF791F901A8C9
:1036F000FFF7AAF9FFF704F9DDF800E009B0704719
:1027D80081B0CDF800E00020084C2468A047012013
:1027E800074C2468A047FEF7F7FF0120034C246834
:1027F800A047DDF800E001B0704700BF440D00209D
:04280800480D002057
:0C1D400001490860704700BF907FB84266
:0C1D340001490860704700BF807FB84282
:0C1CB00001490860704700BF807FB2420D
:0C1CA40001490860704700BF887FB04213
:0C1C980001490860704700BF947FB04213
:0C1CD40001490860704700BF907FB042DB
:0C1CC80001490860704700BF807FB642F1
:0C1CBC0001490860704700BF907FBA42E9
:0C1D680001490860704700BF987FB4423A
:0C1DC80001490860704700BF9C7FB442D6
:0C1DD40001490860704700BF887FB242E0
:0C1DBC0001490860704700BF8C7FB242F4
:0C1D8C0001490860704700BF947FB84216
:0C1D800001490860704700BF847FB84232
:0C1D740001490860704700BF947FB24234
:0C1DB00001490860704700BF887FB04206
:0C1DA40001490860704700BF947FB04206
:0C1D980001490860704700BF907FB04216
:0C1C8C0001490860704700BF847FB64229
:0C17C40001490860704700BF987FB642E2
:0C17D00001490860704700BF907FB442E0
:0C18100001490860704700BF947FB4429B
:0C18040001490860704700BF887FB242B5
:0C17F80001490860704700BF8C7FB242BE
:1017E00041F67E27C0F206077F1EFDD100BF00BF75
:0817F00000BF00BF00BF7047FD
:1029000040F6FE07C0F23D077F1EFDD100BF00BFAD
:0829100000BF00BF00BF7047CB
:1028540092B0CDF800E00190FEF7DEFF02AA254910
:1028640009780023C8B211462022FEF709FF019817
:102874000023102B0BD203F2100212B20AA98A18F9
:1028840002A9C918097811705B1CDBB2F1E70024B6
:10289400102C0BD20AA90B1904F2100212B202A9CD
:1028A400891809781970641CE4B2F1E70023002543
:1028B400102D1AD2690042180AACE1180978118067
:1028C400690042181188090211805A1C12B2D6B24A
:1028D40069004318D1B261180A7819881143198024
:1028E400711CCBB26D1CEDB2E2E7DDF800E012B072
:0828F400704700BF2F0D00200A
:10181C0040F2000212B201210148017010B270476F
:04182C00B50C0020D7
:1016840085B0CDF800E0ADF80C200A468DF8103096
:1016940040F20004ADF8084011463F4C247854B1A0
:1016A400019101213D4C2468A0470199FFF7A6FA56
:1016B4000025394C2570BDF80C40012C0CD108468E
:1016C4000721374C2468A047BDF908400443ADF80E
:1016D4000840FFF793FA51E0BDF80C40022C19D1F1
:1016E400019108460B212E4C2468A0470199BDF9AD
:1016F40008400443ADF808404C1C2046FFF77EFA2E
:101704000521274C2468A047BDF908400443ADF8DF
:10171400084033E0019108460B21214C2468A0477E
:101724000199BDF908400443ADF808404B1CFFF78C
:1017340065FA1946BDF80C40641EA4B2ADF80C401D
:10174400012C11D9019108460921154C2468A047A0
:101754000199BDF908400443ADF808404C1C2346E8
:10176400FFF74CFA1946E5E7084605210C4C2468B6
:10177400A047BDF908400443ADF808409DF8104067
:10178400012C02D10125044C2570BDF90800DDF8B7
:1017940000E005B0704700BFB50C00203C0D0020F0
:0417A400400D0020D4
:1009D00081B0CDF800E0CAB2C1B20348FFF764FFAE
:0C09E000DDF800E001B0704700000240AC
:1008A80081B04B009BB213439BB2036001B0704709
:1009B40081B0CDF800E0CAB2C1B20348FFF772FFBC
:0C09C400DDF800E001B0704700100240B8
:1009980081B0CDF800E0CAB2C1B20348FFF780FFCA
:0C09A800DDF800E001B0704700200240C4
:1009EC0081B0CDF800E0CAB2C1B20348FFF756FFA0
:0C09FC00DDF800E001B070470030024060
:100A400081B0CDF800E0CAB2C1B20348FFF72CFF75
:0C0A5000DDF800E001B0704700000C4031
:100A240081B0CDF800E0CAB2C1B20348FFF73AFF83
:0C0A3400DDF800E001B0704700100C403D
:100A080081B0CDF800E0CAB2C1B20348FFF748FF91
:0C0A1800DDF800E001B0704700200C4049
:10097C0081B0CDF800E0CAB2C1B20348FFF78EFFD8
:0C098C00DDF800E001B0704700300C40C6
:1008F00081B0CDF800E0CAB2C1B20348FFF7D4FF1F
:0C090000DDF800E001B0704700800B4003
:1008D40081B0CDF800E0CAB2C1B20348FFF7E2FF2D
:0C08E400DDF800E001B0704700900B4010
:1008B80081B0CDF800E0CAB201460348FFF7EEFE6A
:0C08C800DDF800E001B0704700000240C5
:1006A40084B0CDF800E0044603914FF000030293B8
:1006B4005E4B9C4206D15E4B1B6802935D4B1B68EC
:1006C400019358E05C4B9C4206D15C4B1B6802933F
:1006D4005B4B1B6801934EE05A4B9C4206D15A4B2C
:1006E4001B680293594B1B68019344E0584B9C428E
:1006F40006D1584B1B680293574B1B6801933AE091
:10070400564B9C4206D1564B1B680293554B1B68B3
:10071400019330E0544B9C4206D1544B1B68029326
:10072400534B1B68019326E0524B9C4206D1524B1B
:100734001B680293514B1B6801931CE0504B9C4275
:1007440006D1504B1B6802934F4B1B68019312E078
:100754004E4B9C4206D14E4B1B6802934D4B1B687B
:10076400019308E04C4B9C4205D14C4B1B6802930F
:100774004B4B1B680193072A03D00B2A01D0204658
:1007840017E0029E2046D1B2031D1C68C4F38013F7
:1007940073B1029B4BB126B90320019CA0470120F1
:1007A40040E0731E1A46134600E033461E46EBE74C
:1007B400CAB2031D1A60FFF725FDFFF723FDFFF7FB
:1007C40021FD029E031D1C68C4F3000363B1029B58
:1007D4003BB126B90320019CA047012022E0711EF1
:1007E40000E031460E46EDE7031D1C68C4F34003E8
:1007F40073B1092A02D00B2A00D008E0031D1C683B
:10080400C4F300131BB9041D40F20403236004E085
:1008140000F208031C68039B1C70031D1C68C4F3CE
:100824004003D8B2DDF800E004B070470000024095
:10083400C00C0020700D002000100240C40C0020E9
:10084400740D002000200240C80C0020780D002008
:1008540000300240CC0C00207C0D002000000C4035
:10086400D00C0020800D002000100C40D40C00207F
:10087400840D002000200C40D80C0020880D00209E
:1008840000300C40DC0C00208C0D002000800B405C
:10089400E00C0020900D002000900B40E40C0020A0
:0408A400940D00208F
:1002080040F22607C0F200077F1EFDD100BF00BFE5
:0802180000BF00BF00BF7047EA
:10090C0081B0CDF800E0CAB201460348FFF7C4FE3F
:0C091C00DDF800E001B070470010024060
:1009600081B0CDF800E0CAB201460348FFF79AFE15
:0C097000DDF800E001B0704700200240FC
:1009440081B0CDF800E0CAB201460348FFF7A8FE23
:0C095400DDF800E001B070470030024008
:1009280081B0CDF800E0CAB201460348FFF7B6FE31
:0C093800DDF800E001B0704700000C404A
:100A5C0081B0CDF800E0CAB201460348FFF71CFE96
:0C0A6C00DDF800E001B0704700100C4005
:100B900081B0CDF800E0CAB201460348FFF782FDFC
:0C0BA000DDF800E001B0704700200C40C0
:100B740081B0CDF800E0CAB201460348FFF790FD0A
:0C0B8400DDF800E001B0704700300C40CC
:100B580081B0CDF800E0CAB201460348FFF79EFD18
:0C0B6800DDF800E001B0704700800B4099
:100BAC0081B0CDF800E0CAB201460348FFF774FDEE
:0C0BBC00DDF800E001B0704700900B4035
:100C000049F63E47C0F200077F1EFDD100BF00BF7E
:080C100000BF00BF00BF7047E8
:102A10004C0005192C8814402C804C0005192C887A
:062A20001C432C807047EE
:102A480089B0CDF800E000250024102C14D201AB89
:102A58005A19610041180988090A1170691C09B2DC
:102A6800CDB2C9B25A186100411809881170691CA1
:102A7800CDB2641CE4B2E8E7FEF7CCFE01AA064931
:102A880009780023C8B211462022FEF7DBFEDDF8E4
:0C2A980000E009B0704700BF2F0D0020C7
:10184C0085B0CDF800E0ADF80C200A468DF81030CC
:10185C0040F20004ADF808401146424C247854B1D3
:10186C0001910021404C2468A0470199FFF7C2F96F
:10187C0000253C4C2570BDF80C40012C0DD10C788A
:10188C000721E0B2394C2468A047BDF90840044355
:10189C00ADF80840FFF7AEF957E0BDF80C40022C4C
:1018AC001CD10C7801910321E0B2304C2468A04784
:1018BC000199BDF908400443ADF808404C1C204682
:1018CC00FFF798F904780521E0B2284C2468A0476A
:1018DC00BDF908400443ADF8084036E00C7801919E
:1018EC000321E0B2214C2468A0470199BDF90840BE
:1018FC000443ADF808404B1CFFF77CF91946BDF8C2
:10190C000C40641EA4B2ADF80C40012C12D90C781A
:10191C0001910121E0B2154C2468A0470199BDF951
:10192C0008400443ADF808404C1C2346FFF762F90D
:10193C001946E4E70C780521E0B20C4C2468A0476A
:10194C00BDF908400443ADF808409DF81040012C47
:10195C0002D10125034C2570BDF90800DDF800E02B
:10196C0005B07047B50C00203C0D0020540D002034
:100BE40081B0CDF800E0CAB2C1B20348FFF75CFCA3
:0C0BF400DDF800E001B070470000024096
:1004AC0082B0CDF800E04FF000045D4B984205D1CE
:1004BC005C4B1D685C4B1B6801935BE05B4B98428B
:1004CC0006D15B4B1C685B4B1B680193254651E0C6
:1004DC00594B984206D1594B1C68594B1B680193D8
:1004EC00234646E0574B984206D1574B1C68574B56
:1004FC001B68019323463CE0554B984206D1554B63
:10050C001C68554B1B680193234632E0534B9842B1
:10051C0006D1534B1C68534B1B680193234628E0B0
:10052C00514B984206D1514B1C68514B1B6801939F
:10053C0023461EE04F4B984206D14F4B1C684F4B45
:10054C001B680193234614E04D4B984206D14D4B4A
:10055C001C684D4B1B68019323460AE04B4B984299
:10056C0006D14B4B1C684B4B1B680193234600E098
:10057C0023461D4600F208031960072A05D0032AFA
:10058C0003D004462846D1B215E02E46D1B202461D
:10059C002846131D1C68C4F380135BB148B126B9FF
:1005AC000420019CA047012036E0731E1C46264601
:1005BC00FFE7EEE71446231D1960FFF71FFEFFF758
:1005CC001DFEFFF71BFE024625462B1D1C68C4F3BF
:1005DC0000034BB138B122B90420019CA047012083
:1005EC001AE0521EFFE7F0E72B1D1C68C4F3400312
:1005FC006BB1012902D0032900D008E02B1D1C6827
:10060C00C4F300131BB92C1D40F2040323602B1DF3
:10061C001C68C4F34003D8B2DDF800E002B07047A8
:10062C0000000240C00C0020700D002000100240A1
:10063C00C40C0020740D002000200240C80C0020C7
:10064C00780D002000300240CC0C00207C0D0020E6
:10065C0000000C40D00C0020800D002000100C403D
:10066C00D40C0020840D002000200C40D80C00205D
:10067C00880D002000300C40DC0C00208C0D00207C
:10068C0000800B40E00C0020900D002000900B40EF
:08069C00E40C0020940D002085
:100BC80081B0CDF800E0CAB2C1B20348FFF76AFCB1
:0C0BD800DDF800E001B0704700100240A2
:100B3C0081B0CDF800E0CAB2C1B20348FFF7B0FCF7
:0C0B4C00DDF800E001B07047002002401E
:100AB00081B0CDF800E0CAB2C1B20348FFF7F6FC3E
:0C0AC000DDF800E001B07047003002409B
:100A940081B0CDF800E0CAB2C1B20348FFF704FD4B
:0C0AA400DDF800E001B0704700000C40DD
:100A780081B0CDF800E0CAB2C1B20348FFF712FD59
:0C0A8800DDF800E001B0704700100C40E9
:100ACC0081B0CDF800E0CAB2C1B20348FFF7E8FC30
:0C0ADC00DDF800E001B0704700200C4085
:100B200081B0CDF800E0CAB2C1B20348FFF7BEFC05
:0C0B3000DDF800E001B0704700300C4020
:100B040081B0CDF800E0CAB2C1B20348FFF7CCFC13
:0C0B1400DDF800E001B0704700800B40ED
:100AE80081B0CDF800E0CAB2C1B20348FFF7DAFC22
:0C0AF800DDF800E001B0704700900B40FA
:101DE00045F6FE17C0F262277F1EFDD100BF00BF7F
:081DF00000BF00BF00BF7047F7
:1037B40089B0CDF800E001A8FFF74AF801A848F263
:1037C400000347F6FF7240F20001FFF71FF901A85A
:1037D40044F200034BF6FF7240F20001FFF716F9C2
:1037E40001A840F200034DF6FF7240F20001FFF71A
:1037F4000DF901A840F200034FF2FF7240F20001FC
:10380400FFF704F901A840F200034FF6FF3240F23B
:103814000001FFF7FBF801A840F200234FF6FF5226
:1038240040F20001FFF7F2F801A840F200034FF65E
:10383400FF6240F20001FFF7E9F801A840F200033B
:103844004FF6BF7240F20001FFF7E0F801A840F222
:1038540001034FF6FE7240F20001FFF7D7F801A80A
:1038640040F2000347F6FF7240F20101FFF7CEF881
:1038740001A840F2000347F6FF7240F20201FFF78D
:10388400C5F801A844F200034BF6FF7240F20201AE
:10389400FFF7BCF801A840F200034EF6FF7240F2B5
:1038A4000201FFF7B3F801A840F600034FF2FF72DC
:1038B40040F20201FFF7AAF801A840F200034FF614
:1038C400FF3240F20201FFF7A1F801A840F2000321
:1038D4004FF63F7240F20201FFF798F801A840F258
:1038E40000034FF6CF7240F20201FFF78FF801A8F0
:1038F40040F204034FF6F37240F20201FFF786F838
:1039040001A840F200034FF6FC7240F20201FFF7F7
:103914007DF801A840F200034FF63F7240F2030124
:10392400FFF774F801A840F210034FF6CF7240F28B
:103934000301FFF76BF801A840F2000343F6FF729E
:1039440040F20401FFF762F801A840F200034CF6CC
:10395400FF7240F20401FFF759F801A840F2000396
:103964004FF6FF6240F20401FFF750F801A8FFF799
:0A39740069F8DDF800E009B07047C3
:103554008AB0CDF800E0102818D202A98DF8040032
:103564000846FFF775F99DF8040002ACA31D1A88FC
:103574004FF6F07102EA01011980A21D118801437E
:1035840011802046FFF75EFA002000E00120DDF8FC
:0635940000E00AB07047E0
:103504008AB0CDF800E008281DD202A98DF8040085
:103514000846FFF79DF99DF8040002AC04F2080385
:103524001A884FF60F7102EA01011980010104F2B1
:1035340008031A88C9B242EA010119802046FFF73C
:1035440081FA002000E00120DDF800E00AB07047B5
:1034BC008AB0CDF800E0802818D202A9ADF804003B
:1034CC000846FFF7C1F9BDF8040002ACA21D118833
:1034DC0001F0FF01118003029BB2A21D1188194358
:1034EC0011802046FFF7AAFA002000E00120DDF849
:0634FC0000E00AB0704779
:10359C008AB0CDF800E010281AD202A98DF80400E8
:1035AC000846FFF751F99DF8040002AC04F2080339
:1035BC001A884FF6F07102EA0101198004F2080230
:1035CC001188014311802046FFF738FA002000E0F3
:0A35DC000120DDF800E00AB070479E
:103BF00081B0CDF800E0324C2468A047314908700C
:103C0000C4B2002C00F057802F4C2468A0472F49E5
:103C1000087023E0FEF79EFF4DE0FEF7CFFF4AE07D
:103C2000FFF7F2FA47E0FFF71FF944E0FFF7D4F996
:103C300041E0FFF791F93EE0FFF72EF83BE0FFF798
:103C4000CBFB38E0FFF754FA35E0FFF799F832E0A4
:103C5000FFF74EFB2FE0FFF7BDFA2CE01B48007882
:103C60002B28D7D0194800782D28D6D017480078AF
:103C70007328D5D0154800787428D4D0134800781C
:103C80006D28D3D0114800786928D2D00F48007829
:103C90003128D1D00D4800783228D0D00B48007898
:103CA0003328CFD0094800782E28CED00748007896
:103CB0002C28CDD0CFE7DDF800E001B0704700BF81
:103CC000300D00202D0D0020340D00202E0D002081
:10360C0081B00448006800B1FBE70348006801B0D2
:0C361C00704700BF1003184200C00040BF
:1035FC0081B00248006801B0704700BF1803184240
:1035E80081B00348006880F00100C0B201B07047A4
:0435F8000C03184266
:1039D40081B00448006800B1FBE70348006801B007
:0C39E400704700BF10031A4200D00040E2
:103AC40081B00248006801B0704700BF18031A4271
:103AB00081B00348006880F00100C0B201B07047D7
:043AC0000C031A4297
:103A940081B00448006800B1FBE70348006801B046
:0C3AA400704700BF10031C4200E000400F
:103AD40081B00248006801B0704700BF18031C425F
:103AE40081B00348006880F00100C0B201B07047A3
:043AF4000C031C4261
:103AF80081B00448006800B1FBE70348006801B0E2
:0C3B0800704700BF10031E4200F0004098
:103A840081B00248006801B0704700BF18031E42AD
:103A1C0081B00348006880F00100C0B201B070476B
:043A2C000C031E4227
:103A000081B00448006800B1FBE70348006801B0DA
:0C3A1000704700BF10032042000001407E
:1039F00081B00248006801B0704700BF1803204240
:103A300081B00348006880F00100C0B201B0704757
:043A40000C03204211
:103A680081B00448006800B1FBE70348006801B072
:0C3A7800704700BF100322420010014004
:103A580081B00248006801B0704700BF18032242D5
:103A440081B00348006880F00100C0B201B0704743
:043A54000C032242FB
:102C240081B00448006800B1FBE70348006801B0C4
:0C2C3400704700BF100324420020014044
:102B440081B00248006801B0704700BF18032442F6
:102C6C0081B00348006880F00100C0B201B0704729
:042C7C000C032442DF
:102C400081B00448006800B1FBE70348006801B0A8
:0C2C5000704700BF100326420030014016
:102C5C0081B00248006801B0704700BF18032642DB
:102C800081B00348006880F00100C0B201B0704715
:042C90000C032642C9
:102B540081B0CDF800E0FFF79BFC1049087060B924
:102B64000F48022100F0CAFD0E48022100F0C6FD04
:102B74000D48022100F0C2FD0BE00C48022100F0D8
:102B8400BDFD0B48022100F0B9FD0A48022100F006
:102B9400B5FDDDF800E001B0704700BF2C0D00204A
:102BA4005009002080090020B0090020E00900201D
:082BB400100A0020400A002075
:1024940089B0CDF800E001A800F0DAF901A8801DA8
:1024A4000088C0B200F00F00C0B2C1B20F2812D22F
:1024B400481CC4B201AB9A1D11884FF6F07001EAB2
:1024C40000001080991D088820430880184600F0F9
:1024D400B9FA002000E00120DDF800E009B07047FF
:102BBC0081B0CDF800E0FFF72DFC1049087060B92A
:102BCC000F48022100F096FD0E48022100F092FD04
:102BDC000D48022100F08EFD0BE00C48022100F0A4
:102BEC0089FD0B48022100F085FD0A48022100F006
:102BFC0081FDDDF800E001B0704700BF2C0D002016
:102C0C00700A0020A00A0020D00A0020000B00202F
:082C1C00300B0020600B0020CA
:1024200089B0CDF800E001A800F014FA01A8801DE1
:102430000088C0B200F00F00C0B2C1B2002812D9AB
:10244000481EC4B201AB9A1D11884FF6F07001EA24
:1024500000001080991D088820430880184600F06D
:10246000F3FA002000E00120DDF800E009B0704739
:1032080081B0CDF800E0FEF7F3FD40F6FE07C0F20E
:103218003D077F1EFDD100BF00BF00BF00BF00BF3C
:10322800FEF7FCFD41F67E27C0F2060700BF00BF8F
:103238007F1EFDD100BF00BF00BFFFF757FA1F492F
:103248000880FFF7E9F91E4800ED000AFFF70CF9BE
:103258001C490880194800881B49FEF7BFFF1B4816
:10326800022100F049FA1A48022100F045FA1948EB
:10327800012100F041FA0121134800F03DFA1648F7
:10328800022100F039FA0E4810ED000A0E48FEF748
:10329800CDFF1248012100F02FFA01210A4800F061
:1032A8002BFA0F48022100F027FA0E48022100F0FD
:1032B80023FADDF800E001B0704700BFE80C0020F9
:1032C800EC0C0020EA0C0020F00C00208A080020FA
:1032D800BA080020EA080020F9080020FF080020AA
:0832E8001B0900202009002051
:101DF80089B0CDF800E001A800F028FD01A840F264
:101E080000134FF6FF6240F2000100F0FDFD01A84B
:0C1E180000F016FEDDF800E009B0704795
:101E240089B0CDF800E001A800F012FD01A840F24D
:101E340000034FF6FF6240F2000100F0E7FD01A845
:0C1E440000F000FEDDF800E009B070477F
:1026F40089B0CDF800E001A800F0AAF801A81030D4
:10270400008800F0FF00C0B2DDF800E009B07047B7
:102620008BB0CDF800E001A800F014F901AA901DCC
:10263000008800F0C00080B2800980B200F0030181
:1026400089B28BB2901D008800F0300080B2000982
:1026500080B200F0030082B229B9214800EE100ACE
:102660008DED090A0EE0012B05D11E4800EE100A7F
:102670008DED090A06E0022B04D11A4800EE100A7B
:102680008DED090A2AB9184800EE100A8DED0A0AE4
:102690000EE0012A05D1154800EE100A8DED0A0A58
:1026A00006E0022A04D1124800EE100A8DED0A0A53
:1026B00001A81230018840F2FF3001EA000080B228
:1026C00000EE900AF8EE600A9DED0A0A60EE800ABC
:1026D0009DED090A30EE800ADDF800E00BB070478E
:1026E0000000AF4200009842CDCC4C3ECDCCCC3D5A
:0426F000CDCC4C3DC4
:1024700089B0CDF800E001A800F0ECF901A8123015
:10248000018840F2FF3001EA0000DDF800E009B009
:02249000704793
:1021E40081B00A4681B200208DB21146052805D27D
:1021F4000B1820221A70401CC0B2F7E70B180022FB
:102204001A70401EC0B20C180A23B5FBF3F203FB8C
:10221400125292B2303222700A22B5FBF2F292B21A
:1022240095B202B902E0401EC0B2ECE701B07047BB
:1022340083B0CDF800E00446002000235BB28DEDAE
:10224400020A0299B1F1FF3F05D170492046FFF718
:10225400A9FB0320D5E0012502A9C91C097801F0D6
:102264008001C9B269B102A9CA1C117881F0800148
:102274001170691CCAB22D212170641CD7B2264684
:1022840001E02646EFB2029929B961493046FFF7C9
:1022940089FB0020B5E00299B1F1FF4F05D15D49FA
:1022A4003046FFF77FFBF8B2ABE08DF80430C3B2E1
:1022B40034469DF90400DDED020AB7EE000AF4EE9F
:1022C400C00AF1EE10FA0ADADDED020AB2EE040AEF
:1022D40020EE800A8DED020A401E40B2EBE7DDEDF0
:1022E400020AB2EE040AF4EEC00AF1EE10FA0BDBB5
:1022F400DDED020A484900EE101A20EE800A8DED49
:10230400020A401C40B2EAE702994900029102A97C
:10231400C91C09787F39CDB202A9CA1C01211170E8
:102324000299A940029102A9C91C0978303121708F
:10233400621C012803DB062801DC154603E02E217C
:102344001170551C0123062144B2C8B210B302A96E
:10235400CA1C0021117002998A00029989180291FD
:1023640002994900029102A9C91C097830312970E7
:102374006D1C63B9611E49B24AB221B92E2129707C
:102384006D1C012100E0D9B254B2CBB2FFE7401E6C
:10239400C0B2DBE72A4660B2511E0978302901D168
:1023A400521EF9E7511E09782E2901D1521EFFE76A
:1023B40018B365211170521C002806DA2D21117002
:1023C400521C414248B243B200E043B2D8B2D9B23F
:1023D400092907D90A21B0FBF1F1C9B230311170D2
:1023E400531C00E013460A22B0FBF2F102FB110178
:1023F400C9B230311970581C00E010460021017038
:102404000020DDF800E003B0704700BFB60C0020E8
:0C241400BA0C0020BC0C0020CDCCCC3D4C
:1019A80081B00091014600980B461C465A1C15460A
:1019B8000346421C10461A78227022780AB12B4638
:0819C800F3E7084601B0704787
:102E680081B0CDF800E02E4800EE100AFFF736FBDF
:102E780040F6FE07C0F23D077F1EFDD100BF00BF30
:102E880000BF00BF00BFFFF7B1FB41F67E27C0F2CD
:102E980006077F1EFDD100BF00BF00BF00BF00BFF7
:102EA800FFF724FC1F490880FFF7B6FB1E4800ED1A
:102EB800000AFFF7D9FA1D4908801D48022100F0D1
:102EC8001BFC1C48022100F017FC164800881A4910
:102ED800FFF784F91948012100F00EFC012116487A
:102EE80000F00AFC1648022100F006FC0E4810ED1E
:102EF800000A1148FFF79AF91248012100F0FCFB7B
:102F080001210D4800F0F8FB0F48022100F0F4FB06
:102F18000E48022100F0F0FBDDF800E001B0704738
:102F2800CDCCB542E80C0020240D0020EA0C00208E
:102F3800E501002015020020F00C002045020020C9
:102F4800540200205A020020740200207902002056
:1024E4008CB0CDF800E0B0EE401A02A98DED011ACF
:1024F400084600F0ADF99DED011A02AB991D09885B
:1025040001F0C00189B2890989B201F0030292B2D3
:1025140090B2991D098801F0300189B2090989B284
:1025240001F003018BB22AB92C4900EE101A8DED8B
:102534000B0A0EE0012805D1294900EE101A8DED91
:102544000B0A06E0022804D1254900EE101A8DED8D
:102554000B0A2BB9234900EE101A8DED0A0A0EE07E
:10256400012B05D1204900EE101A8DED0A0A06E070
:10257400022B04D11D4900EE101A8DED0A0A9DEDBF
:102584000B0A71EE400A9DED0A0A80EE800ABCEE49
:10259400400A10EE101A89B288B2B1F5806F18D2D1
:1025A40002AB9A1C118801F0000111809A1C118859
:1025B4000143118047F6FF7240F20101184648F2C8
:1025C400000300F023FA02A9084600F03BFA0020B9
:1025D40000E00120DDF800E00CB070470000AF42DD
:1025E40000009842CDCC4C3ECDCCCC3DCDCC4C3D26
:1025F40089B0CDF800E001A800F02AF901A840F262
:10260400000347F6FF7240F2010100F0FFF901A850
:0C26140000F018FADDF800E009B0704793
:102FD80081B0CDF800E032480078A0B931480188C6
:102FE800314801802E490878401C08702F4802217A
:102FF80000F082FB2E48022100F07EFB2D480221C2
:1030080000F07AFB48E026480078012814D12548CA
:1030180001882948018022490878401C08702748FF
:10302800022100F069FB2648022100F065FB2548D3
:10303800022100F061FB2FE019480078022814D122
:10304800184801882048018015490878401C0870F4
:103058001E48022100F050FB1D48022100F04CFBE5
:103068001C48022100F048FB16E00D4800780328B0
:1030780012D10C4801880C480180012108480170D0
:103088001548022100F038FB1448022100F034FBF7
:103098001348022100F030FBDDF800E001B0704772
:1030A800A9020020EA0C0020220D0020AA0200201C
:1030B800DA0200200A030020280D00203A0300202D
:1030C8006A0300209A0300202A0D0020CA0300206A
:1030D800FA0300202A0400205A0400208A04002051
:0430E800BA04002006
:102F580081B0CDF800E01748007888B9FFF728F964
:102F68001548022100F0C8FB1448022100F0C4FBF8
:102F78001348022100F0C0FB01210E48017014E043
:102F88000C480078012810D1FEF75EFF0D48022199
:102F980000F0B2FB0C48022100F0AEFB0B48022106
:102FA80000F0AAFB002103480170DDF800E001B041
:102FB800704700BFC4000020C5000020F5000020B5
:102FC800250100205501002085010020B5010020C1
:1021B80089B0CDF800E001A800F048FB01A840F282
:1021C80000034BF6FF7240F2000100F01DFC01A86D
:0C21D80000F036FCDDF800E009B07047B4
:101E500089B0CDF800E001A800F0FCFC01A844F234
:101E600000034BF6FF7240F2000100F0D1FD01A823
:0C1E700000F0EAFDDDF800E009B070476A
:102C980081B0CDF800E02C480088FFF7FFFE40F631
:102CA800FE07C0F23D0700BF00BF7F1EFDD100BF79
:102CB80000BF00BFFFF79AFC41F67E27C0F2060767
:102CC8007F1EFDD100BF00BF00BF00BF00BFFFF7E0
:102CD8000DFD1E490880FFF79FFC1D4800ED000A06
:102CE8001C48022100F008FD1B48022100F004FDE9
:102CF800164800881949FFF771FA1948012100F0B0
:102D0800FBFC0121154800F0F7FC1648022100F0F1
:102D1800F3FC0F4810ED000A1048FFF787FA124835
:102D2800012100F0E9FC01210C4800F0E5FC0F4806
:102D3800022100F0E1FC0E48022100F0DDFCDDF884
:102D480000E001B0704700BF220D0020E80C002011
:102D5800EC0C0020EA0400201A050020F00C0020EA
:102D68004A050020590500205F050020790500204C
:042D78007E050020B4
:102AA4008AB0CDF800E002A9ADF804000846FFF7AB
:102AB400CFFEBDF8040040F2FF31084080B202AB03
:102AC4009A1C118801F0000111809A1C118801439D
:102AD400118047F6FF7240F20101184648F20003E4
:102AE400FFF794FF02A90846FFF7ACFFDDF800E00A
:042AF4000AB070476D
:1033D80081B0CDF800E02C480088FFF75FFB40F68D
:1033E800FE07C0F23D0700BF00BF7F1EFDD100BF32
:1033F80000BF00BFFFF7FAF841F67E27C0F20607C4
:103408007F1EFDD100BF00BF00BF00BF00BFFFF798
:103418006DF91E490880FFF7FFF81D4800ED000A06
:103428001C48022100F068F91B48022100F064F9E9
:10343800164800881949FEF7D1FE1948012100F005
:103448005BF90121154800F057F91648022100F0F0
:1034580053F90F4810ED000A1048FEF7E7FE12482E
:10346800012100F049F901210C4800F045F90F4805
:10347800022100F041F90E48022100F03DF9DDF883
:1034880000E001B0704700BF280D0020E80C0020C4
:10349800EC0C0020AE050020DE050020F00C00201A
:1034A8000E0600201D060020230600203D060020F1
:0434B80042060020A8
:1030F00081B0CDF800E02C480088FFF7D3FC40F603
:10310000FE07C0F23D0700BF00BF7F1EFDD100BF1C
:1031100000BF00BFFFF76EFA41F67E27C0F2060738
:103120007F1EFDD100BF00BF00BF00BF00BFFFF783
:10313000E1FA1E490880FFF773FA1D4800ED000A06
:103140001C48022100F0DCFA1B48022100F0D8FAEA
:10315000164800881949FFF745F81948012100F081
:10316000CFFA0121154800F0CBFA1648022100F0F1
:10317000C7FA0F4810ED000A1048FFF75BF8124835
:10318000012100F0BDFA01210C4800F0B9FA0F4806
:10319000022100F0B5FA0E48022100F0B1FADDF884
:1031A00000E001B0704700BF2A0D0020E80C0020AD
:1031B000EC0C00203607002066070020F00C0020F1
:1031C00096070020A5070020AB070020C5070020B8
:0431D000CA0700200A
:102D800081B0CDF800E0FFF7C5FC40F6FE07C0F2C9
:102D90003D077F1EFDD100BF00BF00BF00BF00BFC9
:102DA000FFF728FC41F67E27C0F2060700BF00BFF0
:102DB0007F1EFDD100BF00BF00BFFFF79BFC1F4976
:102DC0000880FFF72DFC1E4800ED000AFFF750FBBE
:102DD0001C4908801C48022100F092FC1B4802217B
:102DE00000F08EFC154800881949FFF7FBF91948D7
:102DF000012100F085FC0121154800F081FC1648F6
:102E0000022100F07DFC0E4810ED000A1048FFF78B
:102E100011FA1248012100F073FC01210C4800F066
:102E20006FFC0F48022100F06BFC0E48022100F0FD
:102E300067FCDDF800E001B0704700BFE80C00203F
:102E4000EC0C0020EA0C002072060020A2060020F4
:102E5000F00C0020D2060020E1060020E70600204A
:082E6000010700200607002015
:102714008AB0CDF800E001A800F09AF801A9881D5C
:10272400008800F0300080B2000980B200F003029B
:1027340092B293B201F21200018840F2FF3001EA32
:10274400000081B21AB90120ADF824000AE0012B7F
:1027540003D10120ADF8240004E0022B02D10220B1
:10276400ADF82400BDF82400081880B283B2B0F597
:10277400806F17D201AA911C088800F0000008801D
:10278400911C08881843088048F2000340F20101B4
:10279400104647F6FF7200F039F901A800F052F92B
:0E27A400002000E00120DDF800E00AB07047E0
:1032F00081B0CDF800E0FFF70FFB40F6FE07C0F20B
:103300003D077F1EFDD100BF00BF00BF00BF00BF53
:10331000FFF770F941F67E27C0F2060700BF00BF35
:103320007F1EFDD100BF00BF00BFFFF7E3F91F49BB
:103330000880FFF775F91E4800ED000AFFF798F8BE
:103340001C4908801C48022100F0DAF91B480221C0
:1033500000F0D6F9154800881949FEF743FF1948CF
:10336000012100F0CDF90121154800F0C9F91648F6
:10337000022100F0C5F90E4810ED000A1048FEF7D2
:1033800059FF1248012100F0BBF901210C4800F05F
:10339000B7F90F48022100F0B3F90E48022100F0FE
:1033A000AFF9DDF800E001B0704700BFE80C002085
:1033B000EC0C0020EA0C002000000020300000206F
:1033C000F00C0020600000206F000020750000203D
:0833D0008F0000209400002092
:102918008AB0CDF800E001A8FFF798FF01A9881D4B
:10292800008800F0300080B2000980B200F0030295
:1029380092B293B201F21200018840F2FF3001EA2C
:10294800000081B21AB90120ADF824000AE0012B79
:1029580003D10120ADF8240004E0022B02D10220AB
:10296800ADF82400BDF82400081A80B283B2B0F58F
:10297800806F17D201AA911C088800F00000088017
:10298800911C08881843088048F2000340F20101AE
:10299800104647F6FF7200F037F801A800F050F82B
:0E29A800002000E00120DDF800E00AB07047DA
:1031D40081B0CDF800E00848022100F08FFA0748DA
:1031E400022100F08BFA0648022100F087FADDF88C
:1031F40000E001B0704700BF250C0020550C0020F2
:04320400850C002015
:103DD00081B0CDF800E0344A344B354C354D364E89
:103DE0004FF03011354801600021354801606FF017
:103DF000010003EA000133480160C3F3C00018B9B1
:103E0000FDF7EEFCFDF7ECFCC3F3000018B1012157
:103E100049B22D4801602D48864203D92C492748D4
:103E2000016021E02B48864203D92B4923480160D9
:103E30001AE04CF25030864203D928491F480160ED
:103E400012E047F23050864203D925491B480160F1
:103E50000AE0B6F57A5F03D922491848016003E009
:103E60004FF03011154801601F4804601F4805607D
:103E70006FF0805002EA000111480160012149B24F
:103E80001B4801601B48016002F0805038B11A489D
:103E9000006800B9FBE7012149B218480160DDF86C
:103EA00000E001B0704700BF040030331100000093
:103EB0001800800000000000C0D40100C0E00F40E6
:103EC000B0E00F407CE00F40800FFC43A086010073
:103ED000960130008038010055013000D3003000D9
:103EE000B20030007100300060E10F4064E10F402B
:103EF0007C16FC437816FC43002DFC437016FC43F3
:103D980081B002490248016001B07047C0D40100F7
:043DA800580D002092
:083D640081B0FEE701B07047D9
:103D6C0081B04EF68850CEF20000016841F470012B
:103D7C00016000BF00BF00BF00BFF1EE100A40F4AD
:0A3D8C004000E1EE100A01B070479C
:104FC40000B5DFF814B0DFF814A0DFF814C0FEF762
:104FD40003FE00BD704700BF00000020E80C002065
:044FE400003F00008A
:1050440000B5DFF810B0DFF810A0FEF7A7FD00BD33
:0C505400704700BF00000020A00D0020ED
:0417DC00A0860100E2
:103F00002020202A2A2A2A2A2A2A2A2A2A2A2A2A2F
:103F10002A2A2A2A2A2A2A2A2A2A2A2A2A2A2A2A01
:103F20002A2A2A2A2A2A2A2A2A2A2A2A2A2020002F
:103F30002020202A202020202074756E6520646FA8
:103F4000776E2020202020202020202020202020CC
:103F50002020202020202020202020202A20200077
:103F60002020202A2020202020727373693A00200C
:103F700064427556002020202A20202020207475BD
:103F80006E6564206672657175656E63793A0020AE
:043F90004D487A001E
:103F94002020202A2A2A2A2A2A2A2A2A2A2A2A2A9B
:103FA4002A2A2A2A2A2A2A2A2A2A2A2A2A2A2A2A6D
:103FB4002A2A2A2A2A2A2A2A2A2A2A2A2A2020009B
:103FC400002020202A2A2A2A2A2A2A2A2A2A2A2A95
:103FD4002A2A2A2A2A2A2A2A2A2A2A2A2A2A2A2A3D
:103FE4002A2A2A2A2A2A2A2A2A2A2A2A2A2A202041
:103FF400002020202A20202020206D757465206553
:104004006E61626C65642020202020202020202006
:10401400202020202020202020202020202A202092
:10402400002020202A2A2A2A2A2A2A2A2A2A2A2A34
:104034002A2A2A2A2A2A2A2A2A2A2A2A2A2A2A2ADC
:104044002A2A2A2A2A2A2A2A2A2A2A2A2A2A2020E0
:10405400002020202A2A2A2A2A2A2A2A2A2A2A2A04
:104064002A2A2A2A2A2A2A2A2A2A2A2A2A2A2A2AAC
:104074002A2A2A2A2A2A2A2A2A2A2A2A2A2A2020B0
:10408400002020202A20202020206D7574652064C3
:10409400697361626C656420202020202020202028
:1040A400202020202020202020202020202A202002
:1040B400002020202A2A2A2A2A2A2A2A2A2A2A2AA4
:1040C4002A2A2A2A2A2A2A2A2A2A2A2A2A2A2A2A4C
:1040D4002A2A2A2A2A2A2A2A2A2A2A2A2A2A202050
:1040E400002020202A2A2A2A2A2A2A2A2A2A2A2A74
:1040F4002A2A2A2A2A2A2A2A2A2A2A2A2A2A2A2A1C
:104104002A2A2A2A2A2A2A2A2A2A2A2A2A2A20201F
:10411400002020202A202020202074756E65206332
:104124006F6D706C65746520202020202020202075
:10413400202020202020202020202020202A202071
:10414400002020202A2020202020727373693A0046
:06415400206442755600D4
:10415A002020202A202020202074756E6564206685
:0A416A0072657175656E63793A00A5
:10417400204D487A002020202A2A2A2A2A2A2A2A5C
:104184002A2A2A2A2A2A2A2A2A2A2A2A2A2A2A2A8B
:104194002A2A2A2A2A2A2A2A2A2A2A2A2A2A2A2A7B
:0641A4002A2A2020000081
:1041AA002020202A2A2A2A2A2A2A2A2A2A2A2A2A83
:1041BA002A2A2A2A2A2A2A2A2A2A2A2A2A2A2A2A55
:1041CA002A2A2A2A2A2A2A2A2A2A2A2A2A20200083
:1041DA002020202A202020202073746174696F6EA9
:1041EA002031206D656D6F72697A65642020202008
:1041FA002020202020202020202020202A202000CB
:10420A002020202A2A2A2A2A2A2A2A2A2A2A2A2A22
:10421A002A2A2A2A2A2A2A2A2A2A2A2A2A2A2A2AF4
:10422A002A2A2A2A2A2A2A2A2A2A2A2A2A20200022
:10423A002020202A2A2A2A2A2A2A2A2A2A2A2A2AF2
:10424A002A2A2A2A2A2A2A2A2A2A2A2A2A2A2A2AC4
:10425A002A2A2A2A2A2A2A2A2A2A2A2A2A202000F2
:10426A002020202A202020202073746174696F6E18
:10427A002032206D656D6F72697A65642020202076
:10428A002020202020202020202020202A2020003A
:10429A002020202A2A2A2A2A2A2A2A2A2A2A2A2A92
:1042AA002A2A2A2A2A2A2A2A2A2A2A2A2A2A2A2A64
:1042BA002A2A2A2A2A2A2A2A2A2A2A2A2A20200092
:1042CA002020202A2A2A2A2A2A2A2A2A2A2A2A2A62
:1042DA002A2A2A2A2A2A2A2A2A2A2A2A2A2A2A2A34
:1042EA002A2A2A2A2A2A2A2A2A2A2A2A2A20200062
:1042FA002020202A202020202073746174696F6E88
:10430A002033206D656D6F72697A656420202020E4
:10431A002020202020202020202020202A202000A9
:10432A002020202A2A2A2A2A2A2A2A2A2A2A2A2A01
:10433A002A2A2A2A2A2A2A2A2A2A2A2A2A2A2A2AD3
:10434A002A2A2A2A2A2A2A2A2A2A2A2A2A20200001
:10435A002020202A2A2A2A2A2A2A2A2A2A2A2A2AD1
:10436A002A2A2A2A2A2A2A2A2A2A2A2A2A2A2A2AA3
:10437A002A2A2A2A2A2A2A2A2A2A2A2A2A202000D1
:10438A002020202A202020202073746174696F6EF7
:10439A002031206D656D6F72697A65642020202056
:1043AA002020202020202020202020202A20200019
:1043BA002020202A2A2A2A2A2A2A2A2A2A2A2A2A71
:1043CA002A2A2A2A2A2A2A2A2A2A2A2A2A2A2A2A43
:1043DA002A2A2A2A2A2A2A2A2A2A2A2A2A20200071
:1043EA002020202A2A2A2A2A2A2A2A2A2A2A2A2A41
:1043FA002A2A2A2A2A2A2A2A2A2A2A2A2A2A2A2A13
:10440A002A2A2A2A2A2A2A2A2A2A2A2A2A20200040
:10441A002020202A202020202073746174696F6E66
:10442A0020312074756E65642020202020202020F1
:10443A002020202020202020202020202A20200088
:10444A002020202A2020202020727373693A00201D
:10445A0064427556002020202A20202020207475CE
:10446A006E6564206672657175656E63793A0020BF
:04447A004D487A002F
:10447E002020202A2A2A2A2A2A2A2A2A2A2A2A2AAC
:10448E002A2A2A2A2A2A2A2A2A2A2A2A2A2A2A2A7E
:10449E002A2A2A2A2A2A2A2A2A2A2A2A2A202000AC
:1044AE002020202A2A2A2A2A2A2A2A2A2A2A2A2A7C
:1044BE002A2A2A2A2A2A2A2A2A2A2A2A2A2A2A2A4E
:1044CE002A2A2A2A2A2A2A2A2A2A2A2A2A2020007C
:1044DE002020202A202020202073746174696F6EA2
:1044EE0020322074756E656420202020202020202C
:1044FE002020202020202020202020202A202000C4
:10450E002020202A2020202020727373693A002058
:10451E0064427556002020202A2020202020747509
:10452E006E6564206672657175656E63793A0020FA
:04453E004D487A006A
:104542002020202A2A2A2A2A2A2A2A2A2A2A2A2AE7
:104552002A2A2A2A2A2A2A2A2A2A2A2A2A2A2A2AB9
:104562002A2A2A2A2A2A2A2A2A2A2A2A2A202000E7
:104572002020202A2A2A2A2A2A2A2A2A2A2A2A2AB7
:104582002A2A2A2A2A2A2A2A2A2A2A2A2A2A2A2A89
:104592002A2A2A2A2A2A2A2A2A2A2A2A2A202000B7
:1045A2002020202A202020202074756E652075701E
:1045B20020202020202020202020202020202020F9
:1045C2002020202020202020202020202A202000FF
:1045D2002020202A2020202020727373693A002094
:1045E20064427556002020202A2020202020747545
:1045F2006E6564206672657175656E63793A002036
:044602004D487A00A5
:104606002020202A2A2A2A2A2A2A2A2A2A2A2A2A22
:104616002A2A2A2A2A2A2A2A2A2A2A2A2A2A2A2AF4
:104626002A2A2A2A2A2A2A2A2A2A2A2A2A20200022
:104636002020202A2A2A2A2A2A2A2A2A2A2A2A2AF2
:104646002A2A2A2A2A2A2A2A2A2A2A2A2A2A2A2AC4
:104656002A2A2A2A2A2A2A2A2A2A2A2A2A202000F2
:104666002020202A202020202073746174696F6E18
:1046760020332074756E65642020202020202020A1
:104686002020202020202020202020202A2020003A
:104696002020202A2020202020727373693A0020CF
:1046A60064427556002020202A2020202020747580
:1046B6006E6564206672657175656E63793A002071
:0446C6004D487A00E1
:1046CA002020202A2A2A2A2A2A2A2A2A2A2A2A2A5E
:1046DA002A2A2A2A2A2A2A2A2A2A2A2A2A2A2A2A30
:1046EA002A2A2A2A2A2A2A2A2A2A2A2A2A2020005E
:1046FA002020202A2A2A2A2A2A2A2A2A2A2A2A2A2E
:10470A002A2A2A2A2A2A2A2A2A2A2A2A2A2A2A2AFF
:10471A002A2A2A2A2A2A2A2A2A2A2A2A2A2020002D
:10472A002020202A202020202073797374656D2090
:10473A00696E697420646F6E652020202020202015
:10474A002020202020202020202020202A20200075
:10475A002020202A2A2A2A2A2A2A2A2A2A2A2A2ACD
:10476A002A2A2A2A2A2A2A2A2A2A2A2A2A2A2A2A9F
:10477A002A2A2A2A2A2A2A2A2A2A2A2A2A202000CD
:10478A002020202A2A2A2A2A2A2A2A2A2A2A2A2A9D
:10479A002A2A2A2A2A2A2A2A2A2A2A2A2A2A2A2A6F
:1047AA002A2A2A2A2A2A2A2A2A2A2A2A2A2020009D
:1047BA002020202A202020202073746174696F6EC3
:1047CA0020666F756E642020202020202020202063
:1047DA002020202020202020202020202A202000E5
:1047EA002020202A2020202020727373693A00207A
:1047FA0064427556002020202A2020202020636849
:10480A00616E6E656C206672657175656E63793A64
:06481A0000204D487A0069
:104820002020202A2A2A2A2A2A2A2A2A2A2A2A2A06
:104830002A2A2A2A2A2A2A2A2A2A2A2A2A2A2A2AD8
:104840002A2A2A2A2A2A2A2A2A2A2A2A2A20200006
:104850002020202A2A2A2A2A2A2A2A2A2A2A2A2AD6
:104860002A2A2A2A2A2A2A2A2A2A2A2A2A2A2A2AA8
:104870002A2A2A2A2A2A2A2A2A2A2A2A2A202000D6
:104880002020202A2020202020766F6C756D652046
:104890007570202020202020202020202020202073
:1048A0002020202020202020202020202A2020001E
:1048B0002020202A2A2A2A2A2A2A2A2A2A2A2A2A76
:1048C0002A2A2A2A2A2A2A2A2A2A2A2A2A2A2A2A48
:1048D0002A2A2A2A2A2A2A2A2A2A2A2A2A20200076
:1048E0002020202A2A2A2A2A2A2A2A2A2A2A2A2A46
:1048F0002A2A2A2A2A2A2A2A2A2A2A2A2A2A2A2A18
:104900002A2A2A2A2A2A2A2A2A2A2A2A2A20200045
:104910002020202A2020202020766F6C756D6520B5
:104920006D617820202020202020202020202020A1
:104930002020202020202020202020202A2020008D
:104940002020202A2A2A2A2A2A2A2A2A2A2A2A2AE5
:104950002A2A2A2A2A2A2A2A2A2A2A2A2A2A2A2AB7
:104960002A2A2A2A2A2A2A2A2A2A2A2A2A202000E5
:104970002020202A2A2A2A2A2A2A2A2A2A2A2A2AB5
:104980002A2A2A2A2A2A2A2A2A2A2A2A2A2A2A2A87
:104990002A2A2A2A2A2A2A2A2A2A2A2A2A202000B5
:1049A0002020202A2020202020766F6C756D652025
:1049B000646F776E202020202020202020202020BF
:1049C0002020202020202020202020202A202000FD
:1049D0002020202A2A2A2A2A2A2A2A2A2A2A2A2A55
:1049E0002A2A2A2A2A2A2A2A2A2A2A2A2A2A2A2A27
:1049F0002A2A2A2A2A2A2A2A2A2A2A2A2A20200055
:104A00002020202A2A2A2A2A2A2A2A2A2A2A2A2A24
:104A10002A2A2A2A2A2A2A2A2A2A2A2A2A2A2A2AF6
:104A20002A2A2A2A2A2A2A2A2A2A2A2A2A20200024
:104A30002020202A2020202020766F6C756D652094
:104A40006D696E2020202020202020202020202082
:104A50002020202020202020202020202A2020006C
:104A60002020202A2A2A2A2A2A2A2A2A2A2A2A2AC4
:104A70002A2A2A2A2A2A2A2A2A2A2A2A2A2A2A2A96
:104A80002A2A2A2A2A2A2A2A2A2A2A2A2A202000C4
:024A90000A0416
:024A9200190009
:104A9400082020202A2A2A2A2A2A2A2A2A2A2A2AB2
:104AA4002A2A2A2A2A2A2A2A2A2A2A2A2A2A2A2A62
:104AB4002A2A2A2A2A2A2A2A2A2A2A2A2A2A202066
:104AC400002020202A20202020206170706C69633F
:104AD4006174696F6E20696E697420646F6E6520FD
:104AE400202020202020202020202020202A2020B8
:104AF400002020202A2A2A2A2A2A2A2A2A2A2A2A5A
:104B04002A2A2A2A2A2A2A2A2A2A2A2A2A2A2A2A01
:104B14002A2A2A2A2A2A2A2A2A2A2A2A2A2A202005
:104B2400002020202A2A2A2A2A2A2A2A2A2A2A2A29
:104B34002A2A2A2A2A2A2A2A2A2A2A2A2A2A2A2AD1
:104B44002A2A2A2A2A2A2A2A2A2A2A2A2A2A2020D5
:104B5400002020202A202020202077726F6E6720DA
:104B6400636F6D6D616E6420202020202020202042
:104B7400202020202020202020202020202A202027
:104B8400002020202A2A2A2A2A2A2A2A2A2A2A2AC9
:104B94002A2A2A2A2A2A2A2A2A2A2A2A2A2A2A2A71
:104BA4002A2A2A2A2A2A2A2A2A2A2A2A2A2A202075
:024BB4000000FF
:044BB6004E614E00FE
:024BBA003000C9
:044BBC00494E460018
:044BC00000000000F1
:044BC40000000000ED
:044BC80000000000E9
:044BCC0000000000E5
:044BD00000000000E1
:044BD40000000000DD
:044BD80000000000D9
:044BDC0000000000D5
:044BE00000000000D1
:044BE40000000000CD
:104BE80000A00540100040050100000000A005409D
:104BF8002000400501000000000000000000000047
:104C0800000000000000000000000000000000009C
:104C1800000000000000000000000000000000008C
:104C2800000000000000000000000000000000007C
:104C3800000000000000000000000000000000006C
:104C4800000000000000000000000000000000005C
:104C5800000000000000000000000000000000004C
:104C6800000000000000000000000000000000003C
:104C7800000000000000000000000000000000002C
:104C8800000000000000000000000000000000001C
:104C9800000000000000000000000000000000000C
:104CA80000000000000000000000000000000000FC
:0C4CB800000000000000000002000000EE
:104CC40000F00540400040050100000000F00540F0
:104CD400800040050100000000000000000000000A
:104CE40000000000000000000000000000000000C0
:104CF40000000000000000000000000000000000B0
:104D0400000000000000000000000000000000009F
:104D1400000000000000000000000000000000008F
:104D2400000000000000000000000000000000007F
:104D3400000000000000000000000000000000006F
:104D4400000000000000000000000000000000005F
:104D5400000000000000000000000000000000004F
:104D6400000000000000000000000000000000003F
:104D7400000000000000000000000000000000002F
:104D8400000000000000000000000000000000001F
:0C4D940000000000000000000200000011
:104DA00000B00540100040050100000000B00540C3
:104DB000200040050100000000000000000000008D
:104DC00000000000000000000000000000000000E3
:104DD00000000000000000000000000000000000D3
:104DE00000000000000000000000000000000000C3
:104DF00000000000000000000000000000000000B3
:104E000000000000000000000000000000000000A2
:104E10000000000000000000000000000000000092
:104E20000000000000000000000000000000000082
:104E30000000000000000000000000000000000072
:104E40000000000000000000000000000000000062
:104E50000000000000000000000000000000000052
:104E60000000000000000000000000000000000042
:0C4E700000000000000000000200000034
:104E7C000090054004004005020000000090054031
:104E8C0008000805020000000000000000000000FF
:104E9C000000000000000000000000000000000006
:104EAC0000000000000000000000000000000000F6
:104EBC0000000000000000000000000000000000E6
:104ECC0000000000000000000000000000000000D6
:104EDC0000000000000000000000000000000000C6
:104EEC0000000000000000000000000000000000B6
:104EFC0000000000000000000000000000000000A6
:104F0C000000000000000000000000000000000095
:104F1C000000000000000000000000000000000085
:104F2C000000000000000000000000000000000075
:104F3C000000000000000000000000000000000065
:0C4F4C0000000000000000000200000057
:104F5800411D0000351D0000B11C0000A51C00000B
:104F6800991C0000D51C0000C91C0000BD1C0000D5
:104F7800691D0000C91D0000D51D0000BD1D0000F1
:104F8800FFFFFFFFFFFFFFFFFFFFFFFFFFFFFFFF29
:104F9800FFFFFFFFFFFFFFFFFFFFFFFFFFFFFFFF19
:104FA800FFFFFFFFFFFFFFFFFFFFFFFFFFFFFFFF09
:0C4FB800D1090000E50B0000B908000062
:00000001FF
