:10000000A8EF23F00000000000EF00F00000000067
:0A0010000000000000000000F3D71C
:0E001C000E0124B102D08B9801D08B88120007
:0E002A000E0124B102D08B9601D08B861200FD
:0E0038000E0124B102D08D9601D08D861200EB
:0E0046000E0124B102D0899401D089841200E9
:0E0054000E0124B102D08B9C01D08B8C1200C7
:0E0062000E0124B102D08B9401D08B841200C9
:0E0070000E0124B102D08B9A01D08B8A1200AF
:0E007E000E0124B102D08B9E01D08B8E120099
:0E008C000E0124B102D08A9201D08A821200A5
:0E009A000E0124B102D08D9401D08D8412008D
:0E00A8000E0124B102D08F9201D08F8212007F
:0E00B6000E0124B102D08F9401D08F8412006D
:0E00C4000E0124B102D08B9801D08B8812005F
:0E00D2000E0124B102D08B9601D08B86120055
:0E00E0000E0124B102D08A9401D08A8412004D
:0E00EE000E0124B102D08B9801D08B88120035
:0E00FC000E0124B102D08B9601D08B8612002B
:0E010A000E0124B102D08F9001D08F80120020
:0E0118000E0124B102D08B9A01D08B8A120006
:0E0126000E0124B102D08B9801D08B881200FC
:0E0134000E0124B102D08B9801D08B881200EE
:0E0142000E0124B102D08B9601D08B861200E4
:0E0150000E0124B102D08B9201D08B821200DE
:0E015E000E0124B102D08B9A01D08B8A1200C0
:0E016C000E0124B102D08D9001D08D801200C2
:10017A000F0121B302D00000FBD724CE1CFF1200CE
:0E018A00ACB202D00000FCD724CEADFF1200B4
:0E0198000E0124B102D08B9001D08B8012009A
:0E01A6000E0124B102D0899001D08980120090
:0E01B4000E0124B102D0899801D08988120072
:0E01C2000E0124B102D0899201D08982120070
:0E01D0000E0124B102D08B9601D08B86120056
:0E01DE000E0124B102D08D9201D08D8212004C
:0E01EC000E0124B102D08B9801D08B88120036
:0E01FA000E0124B102D08B9E01D08B8E12001C
:0E0208000E0124B102D08A9001D08A8012002B
:0E0216000E0124B102D08B9601D08B8612000F
:0E0224000E0124B102D08B9C01D08B8C1200F5
:10023200F250026EF29E0500FF6A0150FE6E0050FF
:08024200FD6E02BEF28E1200F7
:10024A0068B409D01F0E6614016E0150000A03E15A
:0A025A00010E006E01D0006A1200D0
:10026400C7B409D01F0EC514016E0150000A03E182
:0A027400010E006E01D0006A1200B6
:0A027E00000E82B6010E006E1200A1
:0A028800000E82B8010E006E120095
:0A029200000E82BC010E006E120087
:0A029C00000E80B8010E006E120083
:0A02A600000E80B2010E006E12007F
:0A02B000000E82B4010E006E120071
:0A02BA00000E82B8010E006E120063
:0A02C400000E82B8010E006E120059
:0A02CE00000E80B4010E006E120055
:0A02D800000E84B2010E006E120049
:0A02E200000E81B2010E006E120042
:0A02EC00000E82BE010E006E12002B
:0A02F600000E82BA010E006E120025
:10030000AECF01F0ABA202D0AB98AB8801C000F039
:020310001200D9
:0C031200000E0F0121B3010E006E12005E
:0A031E00000E82B2010E006E120004
:0A032800000E82B6010E006E1200F6
:0A033200000E80B0010E006E1200F4
:0A033C00000E82BC010E006E1200DC
:0A034600000E82B6010E006E1200D8
:0A035000000E82B8010E006E1200CC
:0A035A00000E82B8010E006E1200C2
:0A036400000E81B0010E006E1200C1
:0A036E00000E82BE010E006E1200A8
:0A037800000E82B6010E006E1200A6
:0A038200000E84B0010E006E1200A0
:0A038C00000E82B6010E006E120092
:100396000B840BAED6EF01F0010E036E026A016A02
:0A03A600006A0A360232FF0E120050
:1003B000A8C820FEA9C821FEAAC822FEABC823FEF9
:1003C0009E96C5869EB620D00801A851A911AA11F3
:1003D000AB1119E00E0120512111221123110CE162
:1003E0002FCDE1FF30CDE2FF030EE66E2DCD00F004
:1003F0002ECD01F01EDF08D0010E0E01205F000E91
:10040000215B225B235BDED70E01C9CF1FFE1E518D
:10041000000A02E1C58A01D0C59A9E96C588A8C87F
:1004200020FEA9C821FEAAC822FEABC823FE9EB6A4
:1004300020D00801A851A911AA11AB1119E00E0191
:1004400020512111221123110CE12FCDE1FF30CDDC
:10045000E2FF030EE66E2DCD00F02ECD01F0E9DEB9
:1004600008D0010E0E01205F000E215B225B235B92
:08047000DED71FCE00F01200E0
:10047800A19A1ECE6AFF6CC51FFE6DC520FE6EC513
:1004880021FE6FC522FE68A422D005016C516D11B2
:100498006E116F111BE00E011F5120112111221145
:1004A8000EE1EACCE1FFEBCCE2FF040EE66EE8CC0D
:1004B80000F0E9CC01F0B9DE010E006E3BD0010E70
:1004C8000E011F5F000E205B215B225BDCD76CC531
:1004D8001FFE6DC520FE6EC521FE6FC522FEA1BAA6
:1004E80022D005016C516D116E116F111BE00E01C8
:1004F8001F512011211122110EE1EACCE1FFEBCCB2
:10050800E2FF040EE66EE8CC00F0E9CC01F08DDEE7
:10051800010E006E0FD0010E0E011F5F000E205B52
:10052800215B225BDCD766BC02D0006A03D06684FC
:06053800020E006E12002D
:0A053E00000E82B0010E006E1200E4
:100548009E961ECEC9FFA8C81FFEA9C820FEAAC82D
:1005580021FEABC822FEC7A422D00801A851A911C8
:10056800AA11AB111BE00E011F51201121112211FC
:100578000EE12FCDE1FF30CDE2FF040EE66E2DCD6A
:1005880000F02ECD01F051DE010E006E3BD0010EC1
:100598000E011F5F000E205B215B225BDCD7A8C821
:1005A8001FFEA9C820FEAAC821FEABC822FE9EB61F
:1005B80022D00801A851A911AA11AB111BE00E0104
:1005C8001F512011211122110EE12FCDE1FF30CD55
:1005D800E2FF040EE66E2DCD00F02ECD01F025DEF3
:1005E800010E006E0FD0010E0E011F5F000E205B82
:1005F800215B225BDCD7C5BC02D0006A03D0C5846E
:06060800020E006E12005C
:10060E006CC520FE6DC521FE6EC522FE6FC523FE94
:10061E00A19A6686A1BA20D005016C516D116E119A
:10062E006F1119E00E0120512111221123110CE13D
:10063E00EACCE1FFEBCCE2FF030EE66EE8CC00F075
:10064E00E9CC01F0EFDD08D0010E0E01205F000EA7
:10065E00215B225B235BDED70E016ACF1FFE1E518C
:10066E00000A02E1668A01D0669AA19A66886CC574
:10067E0020FE6DC521FE6EC522FE6FC523FEA1BAFA
:10068E0020D005016C516D116E116F1119E00E0124
:10069E0020512111221123110CE1EACCE1FFEBCC08
:1006AE00E2FF030EE66EE8CC00F0E9CC01F0BADD15
:1006BE0008D0010E0E01205F000E215B225B235B32
:0806CE00DED71FCE00F0120080
:1006D6000B820BAE75EF03F00368026801680068D1
:0806E6000A360232FF0E120079
:1006EE006CC51EFE6DC51FFE6EC520FE6FC521FEBC
:1006FE00668266A220D005016C516D116E116F11CC
:10070E0019E00E011E511F11201121110CE1EACC2E
:10071E00E1FFEBCCE2FF060EE66EE8CC00F0E9CC92
:10072E0001F080DD08D0010E0E011E5F000E1F5B72
:08073E00205B215BDED71200F5
:0407460066841200B3
:08074A000AAE029E000E12002F
:0A075200000E82B6010E006E1200C8
:0A075C00000E81B4010E006E1200C1
:0A076600000E86B0010E006E1200B6
:0E077000026A016A006A086A036A000E12003B
:0A077E00000E82B8010E006E12009A
:0A078800000E84B4010E006E120092
:0A079200000E86B4010E006E120086
:10079C00A8C81EFEA9C81FFEAAC820FEABC821FE11
:1007AC00C582C5A220D00801A851A911AA11AB116C
:1007BC0019E00E011E511F11201121110CE12FCD3A
:1007CC00E1FF30CDE2FF060EE66E2DCD00F02ECD12
:1007DC0001F029DD08D0010E0E011E5F000E1F5B1B
:0807EC00205B215BDED7120047
:0407F400C5841200A6
:0A07F800000E86B2010E006E120022
:0A080200000E84B6010E006E120015
:0A080C00000E82BA010E006E120009
:100816001DCF01F00F0122A302D02299228901C027
:0408260000F01200CC
:10082A006CC520FE6DC521FE6EC522FE6FC523FE76
:10083A000E011E6B1F6B1F51120802E11E518E081A
:10084A0008E3FEDC005201E004D00E011E4B1F2B10
:10085A00F2D70E01120E1F5D02E18F0E1E5D03E339
:10086A007B0E006E26D0668066A022D005016C51F0
:10087A006D116E116F111BE00E0120512111221111
:10088A0023110EE1EACCE1FFEBCCE2FF050EE66EA6
:10089A00E8CC00F0E9CC01F0C7DC010E006E09D00B
:1008AA00010E0E01205F000E215B225B235BDCD769
:0408BA00006A1200BE
:1008BE00A8C820FEA9C821FEAAC822FEABC823FEE6
:1008CE000E011E6B1F6B1F51120802E11E518E0886
:1008DE0008E3C1DC005201E004D00E011E4B1F2BB9
:1008EE00F2D70E01120E1F5D02E18F0E1E5D03E3A5
:1008FE007B0E006E26D0C580C5A022D00801A8515F
:10090E00A911AA11AB111BE00E01205121112211C8
:10091E0023110EE12FCDE1FF30CDE2FF050EE66E85
:10092E002DCD00F02ECD01F07DDC010E006E09D034
:10093E00010E0E01205F000E215B225B235BDCD7D4
:04094E00006A120029
:0A095200000E9EBA010E006E1200A6
:0A095C00000EACB2010E006E120096
:0A096600000E82BA010E006E1200AE
:0A097000000EA4BA010E006E120082
:10097A000CB0FFEF04F00CA2A5EF05F00E6A000E12
:10098A00026416EF05F0F00E0214D8A4E1EF04F0A9
:10099A00023A01380F0B02260138F00B016E0038BB
:1009AA000F0B01260038F00B006E08380F0B0026DB
:1009BA000838F00B086E0E84D89002BEFAEF04F0E5
:1009CA0008360036013602360E2A02BEFAEF04F065
:1009DA0008360036013602360E2A02BEFAEF04F055
:1009EA0008360036013602360E2A0E5003649BEF93
:1009FA0005F0035E0BBC08AEA0EF05F0D880800EB0
:100A0A0008640030000E002201220222D8A0A0EFC2
:100A1A0005F0023201320032034AA5EF05F0A0EFD9
:100A2A0005F001C002F000C001F008C000F0086A39
:100A3A00000E0E8602644DEF05F0F00E0214D8A4E3
:100A4A0035EF05F0023A01380F0B02260138F00B98
:100A5A00016E00380F0B01260038F00B006E0E8471
:100A6A00D89002BEFAEF04F00036013602360E2A9A
:100A7A0002BEFAEF04F00036013602360E2A02BE32
:100A8A00FAEF04F00036013602360E2AFAEF04F0C5
:100A9A0001C002F000C001F0006A000E0E960E8836
:100AAA0002647AEF05F0F00E0214D8A465EF05F09F
:100ABA00023A01380F0B02260138F00B016E0E8440
:100ACA00D89002BEFAEF04F0013602360E2A02BEB0
:100ADA00FAEF04F0013602360E2A02BEFAEF04F0EB
:100AEA00013602360E2AFAEF04F001C002F0016A5A
:100AFA00000E0E860264AAEF05F0F00E0214D8A4C6
:100B0A0089EF05F0023A0E84D89002BEFAEF04F09B
:100B1A0002360E2A02BEFAEF04F002360E2A02BE8E
:100B2A00FAEF04F002360E2AFAEF04F0010E0C6E08
:100B3A002DDCADEF05F0020E0C6E02DEADEF05F016
:100B4A00040E0C6EC3DDADEF05F0080E0C6E0BDE65
:020B5A00120087
:100B5C000C6A0E6A0250D8A4C7EF05F001C002F06F
:100B6C0000C001F0006A0E860250D8A4C7EF05F051
:100B7C0001C002F0016A0E960E880250D8B4D9EF6B
:100B8C0005F00E50035ED8A4D8A0DEEF05F0D89087
:100B9C0002BEE4EF05F0003601360236032ECEEF2E
:100BAC0005F0DEEF05F0010E0C6EDCDDE7EF05F075
:100BBC00020E0C6ECBEC01F0E7EF05F0040E0C6EA0
:040BCC00BEDD120078
:100BD000025006180E6E086A096A0B6A0350076411
:100BE000DBEF06F006500A6E068E028E03500B6E87
:100BF0000750036E000E0B642BEF06F00B50075EE0
:100C0000D8B4CCEF06F0070E07649AEF06F0075E43
:100C100000C008F001C000F002C001F0026A074EF7
:100C2000CCEF06F007646FEF06F0075E00C008F037
:100C300001C000F0016A074ECCEF06F007644DEFEB
:100C400006F0075E00C008F0006A074ECCEF06F021
:100C5000076434EF06F00AC002F005C001F004C0DA
:100C600000F0086AF6EF07F0030E07643FEF06F0A6
:100C7000075E08380F0B086E074ECCEF06F0D890D1
:100C80000832074ECCEF06F0D8900832074ECCEF72
:100C900006F0D8900832CCEF06F0030E07645EEF42
:100CA00006F0075E08380F0B086E0038F00B0826B8
:100CB00000380F0B006E074ECCEF06F0D8900032D4
:100CC0000832074ECCEF06F0D89000320832074EBB
:100CD000CCEF06F0D89000320832CCEF06F0030ECD
:100CE000076486EF06F0075E08380F0B086E0038C1
:100CF000F00B082600380F0B006E0138F00B0026B1
:100D000001380F0B016E074ECCEF06F0D890013280
:100D100000320832074ECCEF06F0D8900132003294
:100D20000832074ECCEF06F0D8900132003208327C
:100D3000CCEF06F0030E0764B7EF06F0075E083845
:100D40000F0B086E0038F00B082600380F0B006EF2
:100D50000138F00B002601380F0B016E0238F00B42
:100D6000012602380F0B026E074ECCEF06F0D8902A
:100D70000232013200320832074ECCEF06F0D89032
:100D80000232013200320832074ECCEF06F0D89022
:100D90000232013200320832096A000E0EAEC0EF94
:100DA00007F0081E001E011E021E082A0022012252
:100DB0000222C0EF07F00750D8A4E1EF06F0F6EFEB
:100DC00007F0096A02C00AF0028E068E0750035C23
:100DD000076ED8B4B3EF07F0070E076481EF07F092
:100DE000075E0450096E0550046E0650056E066AD3
:100DF000074EB3EF07F0070E076456EF07F0075EE4
:100E00000450096E0550046E056A074EB3EF07F0F3
:100E1000070E076434EF07F0075E0450096E046A9A
:100E2000074EB3EF07F0070E07641BEF07F00AC089
:100E300002F0F6EF07F0030E076426EF07F0075EF7
:100E400009380F0B096E074EB3EF07F0D89009323F
:100E5000074EB3EF07F0D8900932074EB3EF07F013
:100E6000D8900932B3EF07F0030E076445EF07F09F
:100E7000075E09380F0B096E0438F00B0926043899
:100E80000F0B046E074EB3EF07F0D890043209320F
:100E9000074EB3EF07F0D89004320932074EB3EF94
:100EA00007F0D89004320932B3EF07F0030E07645D
:100EB0006DEF07F0075E09380F0B096E0438F00B71
:100EC000092604380F0B046E0538F00B042605388C
:100ED0000F0B056E074EB3EF07F0D89005320432C2
:100EE0000932074EB3EF07F0D890053204320932C9
:100EF000074EB3EF07F0D890053204320932B3EF52
:100F000007F0030E07649EEF07F0075E09380F0B2A
:100F1000096E0438F00B092604380F0B046E0538EF
:100F2000F00B042605380F0B056E0638F00B05266E
:100F300006380F0B066E074EB3EF07F0D890063257
:100F4000053204320932074EB3EF07F0D89006326B
:100F5000053204320932074EB3EF07F0D89006325B
:100F6000053204320932086A000E0EAEC0EF07F0F7
:100F7000091E041E051E061E092A04220522062239
:100F80000950082604500022055001220650022272
:100F90000EBED7EF07F0D8A0E6EF07F0023201321D
:100FA00000320832033EE6EF07F0F0EF07F0D8B06A
:100FB000EBEF07F0000E081E001E011E021E082A9D
:100FC0000022012202220A7EEBEF07F0010E0C6ED6
:100FD000D4DCF8EF07F0020E0C6ECFDCF8EF07F070
:100FE000040E0C6E6BEC03F0F8EF07F0000E0C6EC5
:020FF0001200ED
:100FF2000E01146B156B0DCD00F00ECD01F019EC46
:1010020001F000C014FE000E0E01156F14CE00F0A8
:0610120015CE01F01200F2
:101018000B800BAE18EF08F0026A0AAEFF0E026EE4
:0C102800016E006E0A360232FF0E12004C
:081034000B6A0B86FF0E12008F
:10103C000E011C6B1D6B15CE1AFE16CE1BFE14CEAC
:10104C0000F0003600900080FECCE1FFFFCCE2FF08
:10105C0000C0E6FFFCCC00F0FDCC01F019EC01F077
:10106C0000500E011C13000E1D13010E175F000E15
:10107C00185B1751181116E0F6CCE1FFF7CCE2FF24
:10108C00010EE66EF4CC00F0F5CC01F019EC01F099
:10109C001ACEE1FF1BCEE2FF00C0E6FF0E011A4B99
:1010AC001B2BE3D7F6CCE1FFF7CCE2FFE66AF4CCDE
:1010BC0000F0F5CC01F019EC01F01ACEE1FF1BCEDB
:1010CC00E2FF00C0E6FF0E011951000A06E1F8CC60
:1010DC0000F0F9CC01F019EC01F00E011951010AE4
:1010EC0006E105CD00F006CD01F019EC01F01CCEA7
:0810FC0000F01DCE01F012000E
:101104000E011C6B1D6B15CE1AFE16CE1BFE14CEE3
:1011140000F000360090FECCE1FFFFCCE2FF00C0FF
:10112400E6FFFCCC00F0FDCC01F019EC01F000501E
:101134000E011C13000E1D1317CE00F018CE01F083
:10114400010E175F000E185B0050011018E0FECC72
:10115400E1FFFFCCE2FF1ACEE9FF1BCEEAFFEECFA0
:10116400E6FFFCCC00F0FDCC01F019EC01F00050DE
:101174000E011C13000E1D131A4B1B2BDDD7195126
:10118400000A06E1F8CC00F0F9CC01F019EC01F00A
:101194000E011951010A06E105CD00F006CD01F05A
:0E11A40019EC01F01CCE00F01DCE01F012007F
:1011B2000D01D36BD26B100ED25D39E2D40EE16E0B
:1011C2000D0EE26ED351E126D8B0E22AD2CD00F064
:1011D200000E016E0036009001360050D025E96EF7
:1011E2000150D121EA6EEECF03F0EECF04F004C03D
:1011F20000F0016A00C0E6FFD32BD40EE16E0D0EA3
:10120200E26ED351E126D8B0E22AD2CD00F0000E30
:10121200016E0036009001360050D025E96E015073
:10122200D121EA6EEECFE6FFD32BD22BC4D7E0DE7C
:1012320000CD14FED40E156F0D0E166F200E176F13
:0A124200000E186F196B5DDF12003B
:06124C00067EC0DC12006A
:101252000D6A086A0050D8B4000C04180A6E0ABE5F
:101262000D1E0B6A04AE02D0041E042A00AE02D088
:10127200001E002A005004100A6E0ABE1FD004503D
:10128200085E003600340836045008260036060E82
:101292000C6E00340836045000B0085E00A0082628
:1012A20000360C2EF6D700A008260BB015D00DAED6
:1012B200000C001E002A081E082A000C04AE09D0E9
:1012C20000BE04D00050086E006AF1D7006A002AFE
:1012D200000C001E0B2AD3D7082A0450085CD8A49D
:0E12E200E6D7086A002A00AEE2D7FF0C120021
:1012F0007A0E0D01296F010E2A6F240E2B6F0E0E30
:101300002C6F160E6C6F080E6D6F000E6E6F000E58
:101310006F6F700E726F090E736F000E746F000E98
:10132000756F120E256F030E266F000E276F000ECD
:10133000286F0F01218B900E226F98849892A4AA97
:0A13400003D01DCF00F0FBD7120010
:10134A0053DE00CD14FED40E156F0D0E166F200E4F
:10135A00176F000E186F196B6CDE0D01D26B100E31
:10136A00D25D18E2100ED225006E016A000E01222B
:10137A00F40E0024E16E0D0E0120E26ED40EE96E29
:10138A000D0EEA6ED251E926D8B0EA2AEECFE6FF70
:10139A00D22BE5D7D26B100ED25D18E2F40EE16EB5
:1013AA000D0EE26ED251E126D8B0E22A100ED225F5
:1013BA00006E016A000E0122D40E0024E96E0D0EA1
:1013CA000120EA6EEECFE6FFD22BE5D7D36BD26BC4
:1013DA00100ED25D65E2D2CD00F0000E016E00362D
:1013EA00009001360050D025E16E0150D121E26E05
:1013FA00F40EE96E0D0EEA6ED351E926D8B0EA2A48
:10140A00EECFE6FF000EE66ED2CD00F0000E016EC2
:10141A000036009001360050D025056E0150D121CA
:10142A00066E05C0E9FF06C0EAFFEECF03F0EECF75
:10143A0004F003C001F0006A05C0E1FF06C0E2FF44
:10144A0000C0E6FF01C0E6FFD32BD2CD00F0000EAC
:10145A00016E0036009001360050D025026E015010
:10146A00D121036EF40ED96E0D0EDA6ED351D92640
:10147A00D8B0DA2A02C0E9FF03C0EAFFDE50EE1054
:10148A00006EEECF01F0000E011202C0E1FF03C0B0
:10149A00E2FF00C0E6FF01C0E6FFD32BD22B98D7AC
:0214AA0012002E
:1014AC000450000A12E10550000A0FE10650000A30
:1014BC000CE10750000A09E1FF0E006EFF0E016EF1
:1014CC007F0E026EFF0E036EA7D0086A096A0750E2
:1014DC00D8B401EF0BF00350D8B405EF0BF0025069
:1014EC0006180A6E028E068E0E6A02C008F001C043
:1014FC000CF000C00DF004500D5E0550D8A0053C5A
:10150C000C5E0650D8A0063C085E086A0C6A0D6A90
:10151C00D8A098EF0AF0D89002320132003208328B
:10152C00010E0E6E0750035ED8A0A5EF0AF07E0EDA
:10153C000E240326D8B00AEF0BF0ABEF0AF07E0EA8
:10154C000E240326D8A00FEF0BF0180E0B6E0D36E1
:10155C000C3608360036013602360E360450005E64
:10156C000550D8A0053C015E0650D8A0063C025E92
:10157C0006340E120EA0C6EF0AF00D80D1EF0AF061
:10158C00045000260550D8B0053C01260650D8B0B2
:10159C00062802260D900B2EADEF0AF0F7EF0AF09D
:1015AC00D8900036013602360E360450005E0550D7
:1015BC00D8A0053C015E0650D8A0063C025E06345D
:1015CC000E10010B0D26D8B00C2AD8B4082AD8A4BA
:1015DC00F7EF0AF008320C320D32032AD8B40AEFB6
:1015EC000BF00AAE089E0850026E0C50016E0D50A6
:1015FC00006E12EF0BF0010E17DD12EF0BF0020E66
:10160C00B8EC03F012EF0BF0040E6BEC03F012EFDE
:0A161C000BF0080ECBEC01F01200F9
:1016260003CDE1FF04CDE2FFD0CDE9FFD1CDEAFF46
:10163600EECFE6FF01CD00F002CD01F019EC01F08E
:04164600006A120024
:10164A008A0E0D01296F010E2A6F240E2B6F0E0EC2
:10165A002C6F000E6C6F030E6D6F000E6E6F000E16
:10166A006F6F520E726F090E736F000E746F000E59
:10167A00756F5C0E256F090E266F000E276F000E20
:10168A00286FAC8A900EAB6E948E949C9EAA03D05F
:08169A00AECF00F0FBD71200F7
:1016A2000B6A0C6A0A6A0350D8B49BEF0BF0028EE5
:1016B2008E0E035E03BE63EF0BF0D8B463EF0BF044
:1016C2009FEF0BF0036C080E035CD8A07AEF0BF0CF
:1016D200036E013602C001F0026A080E035CD8A054
:1016E2007AEF0BF00136016A0350D8A4D89084EF48
:1016F2000BF00350D8B484EF0BF0D89002320132D1
:10170200032E7EEF0BF00BBC01A091EF0BF0D8A0E3
:1017120091EF0BF0012AD8B4022A02BEAEEF0BF011
:101722000AAEB3EF0BF0021E011E012AD8B4022A40
:10173200B3EF0BF0026A016AB3EF0BF00B800BAE52
:10174200B7EF0BF0026A0AAEB7EF0BF0FF0E026EB4
:10175200016E0A360232B7EF0BF0010E0C6E5BDC43
:10176200B9EF0BF0000E0C6EB9EF0BF0FF0E0C6E22
:0A1772000150006E0250016E1200DB
:10177C000A6A0350D8A40A800750D8A40A820A50D7
:10178C00D8B421EF0CF0030AD8B4DAEF0BF00AB09E
:10179C00D5EF0BF006AE1FEF0CF01DEF0CF002AE08
:1017AC001DEF0CF01FEF0CF00250800B0A6E029E26
:1017BC000650800B069E0A18D8B4EBEF0BF00A50BB
:1017CC00D8B41DEF0CF01FEF0CF00750035CD8B42D
:1017DC00F5EF0BF0D8A011EF0CF017EF0CF0065052
:1017EC00025CD8B4FFEF0BF0D8A011EF0CF017EFA0
:1017FC000CF00550015CD8B409EF0CF0D8A011EF37
:10180C000CF017EF0CF00450005CD8B421EF0CF086
:10181C00D8B017EF0CF00A52D8B41FEF0CF01DEF34
:10182C000CF00A52D8B41DEF0CF01FEF0CF0D8805E
:0E183C001200D8901200D880D884120012003A
:10184A00D2CD00F0D3CD01F0003600900136005021
:10185A000D01D025026E0150D121036E02C0E9FFAD
:10186A0003C0EAFFD451EE14006EEE50D515016E96
:10187A0002C0E1FF03C0E2FF00C0E6FF01C0E6FFCD
:10188A00D2CD00F0D3CD01F00036009001360050E1
:10189A00D025026E0150D121036E02C0E9FF03C0B8
:1018AA00EAFFD651EE10006EEE50D711016E02C05B
:1018BA00E1FF03C0E2FF00C0E6FF01C0E6FF12003D
:1018CA00086A096A000E07620364EAEF0CF0025024
:1018DA0006180A6E075003267E0ED8A07BEF0CF07E
:1018EA00035ED8B0EFEF0CF07FEF0CF0035ED8A0E8
:1018FA00F4EF0CF0028E068E02C00EF001C00BF05F
:10190A0000C00DF000500402F4CF0CF001500502A3
:10191A00F4CF00F0F3CF08F00402F3500C26F45091
:10192A000822000E00220D500502F3500C26F45036
:10193A000822000E002202500402F3500826F45036
:10194A00002202500502016A000E0122F35000260D
:10195A00F45001220D500602F3500826F4500022DA
:10196A00026A000E012202220B500602F3500026E0
:10197A00F4500122000E02220E500602F3500126F4
:10198A00F450022202BED2EF0CF0083600360136BD
:10199A0002360306D8B4F4EF0CF0E5EF0CF0D88069
:1019AA00800E08640030000E002201220222D8A014
:1019BA00E5EF0CF0023201320032034AEFEF0CF08D
:1019CA000AAE029E000EF7EF0CF0010EB8EC03F01F
:1019DA00F7EF0CF0020E6BEC03F0F7EF0CF0040ECD
:0619EA00CBEC01F012003D
:1019F0000050086E0150006E016A026A036A0B6AA9
:101A00000C6A960E036E0A6A00C001F008C000F06E
:0A1A1000086A026AAEEC05F012004D
:101A1A00640E0C01EC6F020EED6F000EEE6F000EFD
:101A2A00EF6FBE0EE06F080EE16F000EE26F000E60
:101A3A00E36F9C0EE46F070EE56F000EE66F000E73
:101A4A00E76FB00E0D01216F030E226F1E0E236F7A
:101A5A000E0E246F480E1D6F050E1E6F1E0E1F6F91
:101A6A000E0E206FF40E196F070E1A6F000E1B6F01
:101A7A00000E1C6F949894968B988B9694889486F3
:0A1A8A00C79EC79C380EC66E1200FE
:101A9400D00E0C6EC90E0D6E0D2EFED70C2EFCD77B
:061AA4000000000012002A
:101AAA00086A096A100E0C6E0134083609360450A9
:101ABA00085E0550D8A0053C095ED8B007D004508E
:101ACA0008260550D8B0053C0926D89000360136BC
:061ADA000C2EEAD71200F9
:101AE000D0CD04F0D1CD05F004C002F005C003F064
:101AF000044A052AD2CD00F0D3CD01F00D01D24B1E
:101B0000D32B00C0E9FF01C0EAFF02C0E1FF03C020
:101B1000E2FFEECFE6FF02C0E9FF03C0EAFFEE52AC
:0E1B200001E0E2D7D0CD00F0D1CD01F01200EF
:101B2E0021D0CF0EAF6EAC9489DD6BD0670EAF6E49
:101B3E00AC9484DD66D0CF0EAF6EAC847FDD61D009
:101B4E00670EAF6EAC847ADD5CD0440EAF6EAC84A3
:101B5E0075DD57D0220EAF6EAC8470DD52D0060EFE
:101B6E00006E58D00D01000E006EA11908E1005054
:101B7E00A01905E1120E9F1902E19E51C00AD1E093
:101B8E00000E006EA11908E10050A01905E1250E06
:101B9E009F1902E19E51800AC9E0000E006EA11944
:101BAE0008E10050A01905E14B0E9F1902E19E516C
:101BBE00000AC1E0000E006EA11908E10050A01944
:101BCE0005E1960E9F1902E19E51000AB9E0000E42
:101BDE00006EA11908E10050A01905E1E10E9F1950
:101BEE0002E19E51000AB1E0A151000A08E1A051A4
:101BFE00010A05E19F51C20A02E19E51000AAAE0C4
:101C0E00AED78A0E016F010E026F240E036F0E0EF9
:061C1E00046F006A1200D1
:101C24009ECDA1FD9FCDA2FDA0CDA3FD0BD0A00E06
:101C3400C86EF1DE44D0280EC86EEDDE40D0040E2E
:101C4400006E3FD0A1CDF6FFA2CDF7FFA3CDF8FFE4
:101C54000900F5CF01F00900F5CF02F00900F5CF36
:101C640003F00900F5CF04F00450000A08E1035022
:101C7400010A05E10250860A02E10150A00AD7E0F8
:101C8400A1CDF6FFA2CDF7FFA3CDF8FF0900F5CF54
:101C940001F00900F5CF02F00900F5CF03F00900C7
:101CA400F5CF04F00450000A08E10350060A05E1E8
:101CB40002501A0A02E10150800ABDE0C0D7000EAA
:041CC400006E12009C
:101CC8009ECDA1FD9FCDA2FDA0CDA3FD0BD0A00E62
:101CD800C86E9FDE44D0280EC86E9BDE40D0040E2E
:101CE800006E3FD0A1CDF6FFA2CDF7FFA3CDF8FF40
:101CF8000900F5CF01F00900F5CF02F00900F5CF92
:101D080003F00900F5CF04F00450000A08E103507D
:101D1800010A05E10250860A02E10150A00AD7E053
:101D2800A1CDF6FFA2CDF7FFA3CDF8FF0900F5CFAF
:101D380001F00900F5CF02F00900F5CF03F0090022
:101D4800F5CF04F00450000A08E10350060A05E143
:101D580002501A0A02E10150800ABDE0C0D7000E05
:041D6800006E1200F7
:101D6C009E0E0D01D06F0D0ED16FA5EC09F0A4CD18
:101D7C00C4FDA5CDC5FD300EA415036EA5CD04F094
:101D8C00000E041603C0C4FD04C0C5FD03C000F062
:101D9C0004C001F001320032019E01320032019E7A
:101DAC0001320032019E01320032019E00C0C4FD9E
:101DBC0001C0C5FD030E0014026E01C003F0000E3D
:101DCC00031602C0C4FD03C0C5FDB0CDBEFDB1CD30
:101DDC00BFFDFF0EB015BE6FB151030BBF6F000EF0
:101DEC00031802E1000E021805E1010EC06F000E8F
:101DFC00C16F15D0000EC51902E1010EC41905E121
:101E0C00010EC06F000EC16F0AD0000EC51902E1A1
:101E1C00020EC41904E1020EC06F000EC16FC05156
:101E2C00BE25016EC151BF21026E01C0C2FD02C0B0
:101E3C00C3FD040E025C02E1000E015C21E2000E07
:101E4C00A017000EA117C251A013C351A1139E0ECF
:101E5C00D06F0D0ED16F010ED26F000ED36FFF0E2F
:101E6C00D46F7F0ED56F000ED66F800ED76FE7DC68
:101E7C009E0ED06F0D0ED16FD9EC08F0006A02D017
:061E8C00010E006E1200C1
:101E92009E0E0D01D06F0D0ED16FA5EC09F0A4CDF1
:101EA200C4FDA5CDC5FD300EA415036EA5CD04F06D
:101EB200000E041603C0C4FD04C0C5FD03C000F03B
:101EC20004C001F001320032019E01320032019E53
:101ED20001320032019E01320032019E00C0C4FD77
:101EE20001C0C5FD030E0014026E01C003F0000E16
:101EF200031602C0C4FD03C0C5FDB0CDBEFDB1CD09
:101F0200BFFDFF0EB015BE6FB151030BBF6F000EC8
:101F1200031802E1000E021805E1010EC06F000E67
:101F2200C16F15D0000EC51902E1010EC41905E1F9
:101F3200010EC06F000EC16F0AD0000EC51902E17A
:101F4200020EC41904E1020EC06F000EC16FC0512F
:101F5200BE5D016EC151BF59026E01C0C2FD02C019
:101F6200C3FD040E025C02E1000E015C21E2000EE0
:101F7200A017000EA117C251A013C351A1139E0EA8
:101F8200D06F0D0ED16F010ED26F000ED36FFF0E08
:101F9200D46F7F0ED56F000ED66F800ED76F54DCD4
:101FA2009E0ED06F0D0ED16FD9EC08F0006A02D0F0
:061FB200010E006E12009A
:101FB800090E0B6E1E0E0C6EE40E0D6E0D2EFED766
:0C1FC8000C2EFCD70B2EFAD700001200E4
:101FD400520E0B6E2B0E0C6E000E0D6E0D2EFED7D8
:0C1FE4000C2EFCD70B2EFAD700001200C8
:101FF000300E0D019E25006E000E9F21016E000E19
:10200000A021026E00C0F6FF01C0F7FF02C0F8FF7A
:102010000900F5CFF0FC0900F5CFF1FC0900F5CF80
:10202000F2FC0900F5CFF3FC1C0E0024F66E000E46
:102030000120F76E000E0220F86E0900F5CFDCFCDF
:102040000900F5CFDDFC0900F5CFDEFC0900F5CF76
:10205000DFFC080E9E25F66E000E9F21F76E000E27
:10206000A021F86E0900F5CF09FD0900F5CF0AFDA2
:102070000900F5CF0BFD0900F5CF0CFD040E9E25E0
:10208000F66E000E9F21F76E000EA021F86E09007B
:10209000F5CF11FD0900F5CF12FD0900F5CF13FDB5
:0820A0000900F5CF14FD120048
:1020A80013CDE1FF14CDE2FFE66A11CD00F012CDA9
:1020B80001F019EC01F00BCDE1FF0CCDE2FF010EB0
:1020C800E66E09CD00F00ACD01F019EC01F0DEDC76
:1020D80013CDE1FF14CDE2FF010EE66E11CD00F045
:0A20E80012CD01F019EC01F0120016
:1020F2009ECDF6FF9FCDF7FFA0CDF8FF0900F5CFEB
:102102000DFD0900F5CF0EFD0900F5CF0FFD090009
:10211200F5CF10FD040E0D019E25F66E000E9F21D7
:10212200F76E000EA021F86E0900F5CFF8FC090049
:10213200F5CFF9FC0900F5CFFAFC0900F5CFFBFC5D
:10214200080E9E25F66E000E9F21F76E000EA0214E
:10215200F86E0900F5CF05FD0900F5CF06FD09006F
:10216200F5CF07FD0900F5CF08FD0C0E9E25F66E92
:10217200000E9F21F76E000EA021F86E0900F5CF28
:10218200FCFC0900F5CFFDFC0900F5CFFEFC0900BF
:10219200F5CFFFFC100E9E25F66E000E9F21F76E06
:1021A200000EA021F86E0900F5CFF4FC0900F5CF6E
:1021B200F5FC0900F5CFF6FC0900F5CFF7FC12009B
:1021C20027D0CF0EAF6EAC9425EC0BF070D0670E1B
:1021D200AF6EAC9425EC0BF06AD0CF0EAF6EAC8430
:1021E20025EC0BF064D0670EAF6EAC8425EC0BF0DF
:1021F2005ED0440EAF6EAC8425EC0BF058D0220EAC
:10220200AF6EAC8425EC0BF052D0060E006E58D0A7
:102212000D01000E006EA11908E10050A01905E1A0
:10222200120E9F1902E19E51C00ACBE0000E006E11
:10223200A11908E10050A01905E1250E9F1902E13C
:102242009E51800AC4E0000E006EA11908E1005000
:10225200A01905E14B0E9F1902E19E51000ABDE053
:10226200000E006EA11908E10050A01905E1960EBA
:102272009F1902E19E51000AB6E0000E006EA119FC
:1022820008E10050A01905E1E10E9F1902E19E51FB
:10229200000AAFE0A151000A08E1A051010A05E1DC
:1022A2009F51C20A02E19E51000AA9E0AED78A0EEE
:1022B200016F010E026F240E036F0E0E046F006A8F
:0222C200120008
:1022C4009E0E0D01D06F0D0ED16FA5EC09F0A4CDBB
:1022D400BEFD0F0EA415016E01C0BEFD0F0E015C04
:1022E40011E2BE2BF00EA417FF0EA517BE51A413C6
:1022F400000EA5139E0ED06F0D0ED16FD9EC08F011
:0A230400006A02D0010E006E120004
:10230E0027D0CF0EAF6EAC9425EC0BF070D0670ECD
:10231E00AF6EAC9425EC0BF06AD0CF0EAF6EAC84E2
:10232E0025EC0BF064D0670EAF6EAC8425EC0BF091
:10233E005ED0440EAF6EAC8425EC0BF058D0220E5E
:10234E00AF6EAC8425EC0BF052D0060E006E58D05A
:10235E000D01000E006EA11908E10050A01905E153
:10236E00120E9F1902E19E51C00ACBE0000E006EC4
:10237E00A11908E10050A01905E1250E9F1902E1EF
:10238E009E51800AC4E0000E006EA11908E10050B3
:10239E00A01905E14B0E9F1902E19E51000ABDE006
:1023AE00000E006EA11908E10050A01905E1960E6D
:1023BE009F1902E19E51000AB6E0000E006EA119AF
:1023CE0008E10050A01905E1E10E9F1902E19E51AE
:1023DE00000AAFE0A151000A08E1A051010A05E18F
:1023EE009F51C20A02E19E51000AA9E0AED78A0EA1
:1023FE00016F010E026F240E036F0E0E046F006A42
:02240E001200BA
:102410003ED00F0120870D0E1F6F040E1E6F218509
:1024200078EC09F083D00F012087060E1F6F820E13
:102430001E6F218578EC09F079D00F012087030EFB
:102440001F6F400E1E6F218578EC09F06FD00F01D1
:102450002087010E1F6FA00E1E6F218578EC09F0FA
:1024600065D00F012087010E1F6F150E1E6F21858D
:1024700078EC09F05BD00F0120871F6B8A0E1E6F6E
:10248000218578EC09F052D0060E006E59D0000E6E
:10249000006E0D01A11908E10050A01905E1120E0E
:1024A0009F1902E19E51C00AB4E0000E006EA1190E
:1024B00008E10050A01905E1250E9F1902E19E5187
:1024C000800AB1E0000E006EA11908E10050A019C9
:1024D00005E14B0E9F1902E19E51000AAEE0000E8D
:1024E000006EA11908E10050A01905E1960E9F1990
:1024F00002E19E51000AABE0000E006EA11908E156
:102500000050A01905E1E10E9F1902E19E51000A59
:10251000A8E0A151000A08E1A051010A05E19F517C
:10252000C20A02E19E51000AA6E0AED70D017A0E62
:10253000016F010E026F240E036F0E0E046F006A0E
:02254000120087
:10254200A20E0D01D06F0D0ED16FA5EC09F0A8CD32
:10255200C4FDA9CDC5FDC00EA815036EA9CD04F01A
:10256200000E041603C0C4FD04C0C5FD060E026EB3
:1025720003C000F004C001F0025005E00132003255
:10258200019EFF0FFAD700C0C4FD01C0C5FD030EB6
:102592000014026E01C003F0000E031602C0C4FD57
:1025A20003C0C5FDA8CDC6FDA9CDC7FD300EA81537
:1025B200C66FA9CDC7FD000EC717C733C633C79F65
:1025C200C733C633C79FC733C633C79FC733C63364
:1025D200C79F030EC617000EC717000E031802E1AD
:1025E200000E021809E1000ECC6F000ECD6F2F0E07
:1025F200CE6F850ECF6F1DD0000EC51902E1010E00
:10260200C41909E1000ECC6F000ECD6F180ECE6F0B
:10261200850ECF6F0ED0000EC51902E1020EC4194D
:1026220008E1000ECC6F000ECD6F180ECE6F850E36
:10263200CF6F000EC71902E1000EC61909E1CD0ED7
:10264200C86FCC0EC96F4C0ECA6F7C0ECB6F1DD0FB
:10265200000EC71902E1010EC61909E1CD0EC86FBD
:10266200CC0EC96F4C0ECA6F7B0ECB6F0ED0000E14
:10267200C71902E1020EC61908E1CD0EC86FCC0ED1
:10268200C96F4C0ECA6F7A0ECB6FCCCD04F0CDCD94
:1026920005F0CECD06F0CFCD07F09ECD00F09FCD58
:1026A20001F0A0CD02F0A1CD03F026EC09F0C8CDD7
:1026B20004F0C9CD05F0CACD06F0CBCD07F056EC3B
:1026C2000AF051EC0BF000C0C2FD01C0C3FD040EC4
:1026D200015C02E1000E005C23E2000E0D01A41772
:1026E200000EA517C251A413C351A513A20ED06F99
:1026F2000D0ED16F010ED26F000ED36FFF0ED46F8D
:102702007F0ED56F000ED66F800ED76F25EC0CF0C2
:10271200A20ED06F0D0ED16FD9EC08F0006A02D074
:06272200010E006E120022
:102728000D01AA6BAB6B9ECDA6FD9FCDA7FDA0CDDD
:10273800A8FDA1CDA9FDA951FF0A08E1A851FF0AEA
:1027480005E1A751FF0A02E1A651FF0A0DE1A2CD5A
:10275800D0FDA3CDD1FD680ED26F050ED36F70ECFE
:102768000DF0030E006EF1D1010EA46FA8AF0ED0CC
:10277800800EA819006E00C0A8FDA42BA2CDE1FF11
:10278800A3CDE2FF2D0EE66EA24BA32B000E006E2A
:10279800A91908E10050A81905E10050A71902E19C
:1027A800A651000A0CE1A2CDD0FDA3CDD1FD620E49
:1027B800D26F050ED36F70EC0DF0006AC6D1A95127
:1027C800FF0A08E1A851000A05E1A751000A02E141
:1027D800A651000A0DE1A2CDD0FDA3CDD1FD640E16
:1027E800D26F050ED36F70EC0DF0A4CD00F0ADD113
:1027F800000E046E000E056E000E066E7F0E076E4C
:10280800A6CD00F0A7CD01F0A8CD02F0A9CD03F028
:10281800BEEC0BF0010ED8B0000E006E00521CE0AA
:10282800A6CD00F0A7CD01F0A8CD02F0A9CD03F008
:10283800000E046E000E056E200E066E820E076EE8
:1028480065EC0CF000C0A6FD01C0A7FD02C0A8FD04
:1028580003C0A9FDAB07CCD7000E046E000E056EB1
:10286800200E066E820E076EA6CD00F0A7CD01F0F1
:10287800A8CD02F0A9CD03F0BEEC0BF0000ED8B045
:10288800010E006E00521CE0A6CD00F0A7CD01F0AD
:10289800A8CD02F0A9CD03F0CD0E046ECC0E056EC6
:1028A8004C0E066E7B0E076E65EC0CF000C0A6FDA4
:1028B80001C0A7FD02C0A8FD03C0A9FDAB2BCCD762
:1028C800FF0EA615086EFF0EA715096E7F0EA81538
:1028D8000A6E000EA9150B6E08C004F009C005F0B9
:1028E8000AC006F00BC007F0043604900536063619
:1028F8000736000EA615006E000EA715016E000E15
:10290800A815026EFF0EA915036E00C0A6FD01C032
:10291800A7FD02C0A8FD03C0A9FD0450A611006EC2
:102928000550A711016E0650A811026E0750A91193
:10293800036E00C0A6FD01C0A7FD02C0A8FD03C02C
:10294800A9FD7F0EA95D006E00C0A5FD010EA96F4F
:1029580000C004F0A6CD00F0A7CD01F0A8CD02F08C
:10296800A9CD03F0045007E0003600900136023686
:102978000336FF0FF8D700C0A6FD01C0A7FD02C0AF
:10298800A8FD03C0A9FDA2CDE1FFA3CDE2FFA95197
:10299800300FE66EA24BA32B800EAB19006E800E93
:1029A800010A005C08E3800E060A006E800EAB196F
:1029B800005C01E30AD0A2CDE1FFA3CDE2FF2E0E19
:1029C800E66EA24BA32B010EAA6F060EA56FA551AA
:1029D800000A54E0A96BA6CD00F0A7CD01F0A8CD60
:1029E80002F0A9CD03F00036009001360236033616
:1029F80000360090013602360336A6510026A7514C
:102A08000122A8510222A951032200C0A6FD01C03B
:102A1800A7FD02C0A8FD03C0A9FDA6CD00F0A7CD63
:102A280001F0A8CD02F0A9CD03F0003600900136E0
:102A38000236033600C0A6FD01C0A7FD02C0A8FDEE
:102A480003C0A9FDA2CDE1FFA3CDE2FFA951300F3C
:102A5800E66EA24BA32BAA51000A0EE1AB07AB51BD
:102A6800000A0AE1A2CDE1FFA3CDE2FF2E0EE66E39
:102A7800A24BA32B010EAA6FA507A9D7FF0EA2256B
:102A8800E96EFF0EA321EA6EEE50300A05E1010E51
:102A9800A25F000EA35BF2D7FF0EA225E96EFF0E20
:102AA800A321EA6EEE502E0A04E1010EA25F000E89
:102AB800A35BAB51000A43E0A2CDE1FFA3CDE2FF47
:102AC800650EE66EA24BA32B800EAB19006E800E2E
:102AD800000A005C0BE2A2CDE1FFA3CDE2FF2D0EC0
:102AE800E66EA24BA32BAB510008AB6FABCDA5FD97
:102AF800800E090A006E800EAB19005C0FE20A0E08
:102B0800046EA5CD00F029EC09F0A2CDE1FFA3CD1C
:102B1800E2FF0050300FE66EA24BA32B0A0E046EA4
:102B2800A5CD00F029EC09F008C000F0A2CDE1FF26
:102B3800A3CDE2FF0050300FE66EA24BA32BA2CD2F
:0C2B4800E1FFA3CDE2FFE66A006A120084
:102B54009E0E0D01D06F0D0ED16FA5EC09F09E0EE7
:102B6400D06F0D0ED16FD26BD36BFF0ED46FFE0EF0
:102B7400D56F000ED66F010ED76F25EC0CF09E0EAC
:0C2B8400D06F0D0ED16FD9EC08F01200DC
:102B90009E0E0D01D06F0D0ED16FA5EC09F0A4CDE6
:102BA000BEFD0F0EA415016E01C0BEFD0150000850
:102BB00011E2BE07F00EA417FF0EA517BE51A41315
:102BC000000EA5139E0ED06F0D0ED16FD9EC08F03C
:0A2BD000006A02D0010E006E120030
:102BDA0059D00D019FB102D0929001D092800F017D
:102BEA00259176D00D019FB102D0949001D09480A6
:102BFA006FD00D019FB102D0969001D0968068D017
:102C0A000D019FB102D0949601D0948661D00D0136
:102C1A009FB102D0949801D094885AD00D019FB1E7
:102C2A0002D0949A01D0948A53D00D019FB102D058
:102C3A00949201D094824CD00D019FB102D093900E
:102C4A0001D0938045D00D019FB102D0949E01D04E
:102C5A00948E3ED00D019FB102D0949C01D0948CE9
:102C6A0037D00D019FB102D0949601D0948630D00E
:102C7A000D019FB102D0949801D0948829D0010EF9
:102C8A00006E28D00D019E51000AA3E09E51010A50
:102C9A00A9E09E51020AADE09E51030AB1E09E519D
:102CAA00040AB5E09E51050AB9E09E51060ABDE044
:102CBA009E51070AC1E09E51080AC5E09E51090AC1
:102CCA00C9E09E510A0ACDE09E510B0AD1E0D7D73E
:062CDA00000E006E120066
:102CE0009E0E0D01D06F0D0ED16FA5EC09F0FF0EF9
:0E2CF000AE15006EAFCD01F0000E0116120001
:102CFE009E0E0D01D06F0D0ED16FA5EC09F09E0E3C
:102D0E00D06F0D0ED16FD26BD36BFF0ED46FFE0E44
:102D1E00D56FD66BD76B25EC0CF09E0ED06F0D0ECB
:082D2E00D16FD9EC08F012008E
:102D36009E0E0D01D06F0D0ED16FA5EC09F0A4CD3E
:102D4600C6FDA5CDC7FDC00EA415036EA5CD04F026
:102D5600000E041603C0C6FD04C0C7FD060E026EB3
:102D660003C000F004C001F0025005E00132003259
:102D7600019EFF0FFAD700C0C6FD01C0C7FD030EB6
:102D86000014026E01C003F0000E031602C0C6FD59
:102D960003C0C7FDA4CDC8FDA5CDC9FD300EA41541
:102DA600C86FA5CDC9FD000EC917C933C833C99F61
:102DB600C933C833C99FC933C833C99FC933C83358
:102DC600C99F030EC817000EC917000E031802E1AB
:102DD600000E021809E1000EBE6F000EBF6F2F0E27
:102DE600C06F850EC16F1DD0000EC71902E1010E1E
:102DF600C61909E1000EBE6F000EBF6F180EC06F38
:102E0600850EC16F0ED0000EC71902E1020EC6195B
:102E160008E1000EBE6F000EBF6F180EC06F850E64
:102E2600C16F000EC91902E1000EC81909E1CD0EE5
:102E3600C26FCC0EC36F4C0EC46F7C0EC56F1DD017
:102E4600000EC91902E1010EC81909E1CD0EC26FC3
:102E5600CC0EC36F4C0EC46F7B0EC56F0ED0000E2A
:102E6600C91902E1020EC81908E1CD0EC26FCC0ED7
:102E7600C36F4C0EC46F7A0EC56FFF0EB015006E91
:102E8600B151030B016EF8EC0CF0C2CD04F0C3CDCA
:102E960005F0C4CD06F0C5CD07F065EC0CF0BECD4F
:102EA60004F0BFCD05F0C0CD06F0C1CD07F0E8ECCB
:042EB60005F0120011
:102EBA000D01A26B050EA25D0AE2A251A025E16EE8
:102ECA00000EA121E26E200EE66EA22BF3D7A251CC
:102EDA00A025E16E000EA121E26EE66AA207A251C8
:102EEA00A025A36F000EA121A46F0A0E046E000E86
:102EFA00056E9ECD00F09FCD01F055EC0DF008C097
:102F0A0000F009C001F0300E0026A3CDE1FFA4CDE8
:102F1A00E2FF00C0E6FF0A0E046E000E056E9ECDAB
:102F2A0000F09FCD01F055EC0DF000C09EFD01C0F0
:102F3A009FFD000E011802E1000E001801E102D007
:062F4A00A207CDD7120022
:102F50009E0E0D01D06F0D0ED16FA5EC09F0FF0E86
:0C2F6000B015006EB151030B016E1200A1
:102F6C009ECDA1FD9FCDA2FDA0CDA3FD0DD0A00EA9
:102F7C00C86E0DEC0DF045D0280EC86E0DEC0DF0A2
:102F8C0040D0040E006E3FD0A1CDF6FFA2CDF7FFCE
:102F9C00A3CDF8FF0900F5CF01F00900F5CF02F041
:102FAC000900F5CF03F00900F5CF04F00450000A36
:102FBC0008E10350010A05E10250860A02E10150C2
:102FCC00A00AD5E0A1CDF6FFA2CDF7FFA3CDF8FF67
:102FDC000900F5CF01F00900F5CF02F00900F5CF9B
:102FEC0003F00900F5CF04F00450000A08E1035087
:102FFC00060A05E102501A0A02E10150800ABCE0FF
:08300C00C0D7000E006E120097
:10301400A00E0D01D06F0D0ED16FA5EC09F0FF0EBF
:103024009E15006E9F51030B016E00C09EFD01C0F2
:103034009FFD000EA217000EA3170050A21301500B
:10304400A313A00ED06F0D0ED16F010ED26F000E20
:10305400D36FFF0ED46F7F0ED56F000ED66F800E28
:10306400D76F25EC0CF0A00ED06F0D0ED16FD9ECFC
:0430740008F012004E
:103078009E0E0D01D06F0D0ED16FA5EC09F09E0EBE
:10308800D06F0D0ED16FD26BD36BFF0ED46FBF0E06
:10309800D56FD66BD76B25EC0CF09E0ED06F0D0E4E
:0830A800D16FD9EC08F0120011
:1030B0009E0E0D01D06F0D0ED16FA5EC09F09E0E86
:1030C000D06F0D0ED16FD26BD36BFF0ED46FBF0ECE
:1030D000D56F000ED66F400ED76F25EC0CF09E0E0C
:0C30E000D06F0D0ED16FD9EC08F012007B
:1030EC009ECDA1FD9FCDA2FD0D0E0D01A36F0A0E6D
:1030FC00A46F3AD0A1CDD0FDA2CDD1FD13EC0BF035
:10310C003ED0A1CDE9FFA2CDEAFFEE520AE0A1CD5F
:10311C00D0FDA2CDD1FD13EC0BF00D01A14BA22BD8
:10312C00F0D72DD0A1CDE9FFA2CDEAFFEE520AE0F7
:10313C00A1CDD0FDA2CDD1FD13EC0BF00D01A14B17
:10314C00A22BF0D70D01A30ED06F0D0ED16F13EC87
:10315C000BF0A40E0D01D06F0D0ED16F13EC0BF014
:10316C000ED0060E006E0CD00D01A051000AC2E06C
:10317C00A051010AC6E0A051020AD4E0F2D7006ABD
:02318C0012002F
:10318E0059D00D019FB102D0929201D092820F01BF
:10319E00259376D00D019FB102D0929801D09288DE
:1031AE006FD00D019FB102D0969201D0968268D059
:1031BE000D019FB102D0949601D0948661D00D017D
:1031CE009FB102D0949801D094885AD00D019FB12E
:1031DE0002D0949A01D0948A53D00D019FB102D09F
:1031EE00949401D094844CD00D019FB102D093924F
:1031FE0001D0938245D00D019FB102D0949E01D093
:10320E00948E3ED00D019FB102D0949C01D0948C2F
:10321E0037D00D019FB102D0949601D0948630D054
:10322E000D019FB102D0949801D0948829D0010E3F
:10323E00006E28D00D019E51000AA3E09E51010A96
:10324E00A9E09E51020AADE09E51030AB1E09E51E3
:10325E00040AB5E09E51050AB9E09E51060ABDE08A
:10326E009E51070AC1E09E51080AC5E09E51090A07
:10327E00C9E09E510A0ACDE09E510B0AD1E0D7D784
:06328E00000E006E1200AC
:103294005DD00D019FB102D0929401D092840F01B0
:1032A40025957AD00D019FB102D0969601D09686CD
:1032B40073D00D019FB102D0969401D096846CD046
:1032C4000D019FB102D0949601D0948665D00D0172
:1032D4009FB102D0949801D094885ED00D019FB123
:1032E40002D0949A01D0948A57D00D019FB102D094
:1032F400989001D0988050D00D019FB102D0939442
:1033040001D0938449D00D019FB102D0989401D08B
:1033140098840F01239540D00D019FB102D098925B
:1033240001D098820F01239337D00D019FB102D0B1
:10333400949601D0948630D00D019FB102D0949818
:1033440001D0948829D0010E006E28D00D019E5121
:10335400000A9FE09E51010AA5E09E51020AA9E0DD
:103364009E51030AADE09E51040AB1E09E51050A44
:10337400B5E09E51060AB9E09E51070ABDE09E5190
:10338400080AC1E09E51090AC7E09E510A0ACDE02D
:0E3394009E510B0AD1E0D7D7000E006E12003A
:1033A2009E0E0D01D06F0D0ED16FA5EC09F09E0E91
:1033B200D06F0D0ED16F010ED26F000ED36FFF0EC4
:1033C200D46F7F0ED56FD66BD76B25EC0CF09E0EAB
:0C33D200D06F0D0ED16FD9EC08F0120086
:1033DE0082CD00FD7FCD9EFD80CD9FFD81CDA0FDD8
:1033EE0079EC10F07CCD9EFD7DCD9FFD7ECDA0FDB8
:0633FE00F8EC0FF01200D4
:1034040016D07DCD9EFD7ECD9FFDEDEC15F01AD03E
:103414007DCD9EFD7ECD9FFDB8DE14D07DCD9EFD7D
:103424007ECD9FFD35DF0ED0010E006E0BD00D0159
:103434007C51000AE6E07C51010AEAE07C51020A70
:06344400EDE0F2D71200DA
:10344A002FD07DCD9EFD7ECD9FFD7FCDA0FD80CD71
:10345A00A1FD97EC0DF032D07DCD9EFD7ECD9FFD76
:10346A007FCDA0FD80CDA1FDE1EC10F027D07DCD70
:10347A009EFD7ECD9FFD7FCDA0FD80CDA1FD08ECF8
:10348A0012F01CD07DCD9EFD7ECD9FFD7FCDA0FD8F
:10349A0080CDA1FD87EC11F011D0010E006E0ED087
:1034AA000D017C51000ACDE07C51010AD5E07C5126
:0E34BA00020ADDE07C51100AE5E0EFD71200B7
:1034C8001DD07DCD9EFD7ECD9FFD7FCDA0FD4ADD2B
:1034D80020D07DCD9EFD7ECD9FFD7FCDA0FD12EC41
:1034E8000EF017D07DCD9EFD7ECD9FFD7FCDA0FD3A
:1034F80064EC0EF00ED0010E006E0BD00D017C5165
:10350800000ADFE07C51010AE4E07C51020AEAE0AB
:04351800F2D71200D4
:10351C007ACD9EFD7BCD9FFD77DD090E0B6E1E0EC9
:10352C000C6EE40E0D6E0D2EFED70C2EFCD70B2E52
:10353C00FAD7000030DFD00E0C6EC90E0D6E0D2EBA
:10354C00FED70C2EFCD70000000070EC16F000C06B
:10355C0063FD000E646F9BEC16F000C015FD01C0FE
:10356C0016FD02C017FD03C018FD480E9E6F020E1B
:10357C009F6F020EA06FB4DD180E0D019E6F020E30
:10358C009F6F020EA06FACDD63CD9EFD64CD9FFDE1
:10359C00310E0D01A06F0D0EA16F89DC7E0E9E6F9A
:1035AC00020E9F6F010EA06F9BDD310E0D019E6F01
:1035BC000D0E9F6F010EA06F93DD780E0D019E6FA7
:1035CC00020E9F6F020EA06F8BDD15CD9EFD16CDEA
:1035DC009FFD17CDA0FD18CDA1FD310E0D01A26FE1
:1035EC000D0EA36F94EC13F0FE0E9E6F010E9F6FE9
:1035FC00010EA06F75DD310E0D019E6F0D0E9F6FCC
:10360C00010EA06F6DDD990E0D019E6F010E9F6F67
:10361C00020EA06F65DD690E0D019E6F010E9F6F8E
:08362C00020EA06F5DDD12002B
:1036340076CD9EFD77CD9FFDEBDC090E0B6E1E0E45
:103644000C6EE40E0D6E0D2EFED70C2EFCD70B2E39
:10365400FAD70000A4DED00E0C6EC90E0D6E0D2E2E
:10366400FED70C2EFCD70000000070EC16F000C052
:1036740063FD000E646F9BEC16F000C015FD01C0E5
:1036840016FD02C017FD03C018FDCE0E9E6F010E7D
:103694009F6F020EA06F28DD9E0E0D019E6F010E1E
:1036A4009F6F020EA06F20DD63CD9EFD64CD9FFD54
:1036B400310E0D01A06F0D0EA16F5DEC17F01B0E06
:1036C4009E6F060E9F6F010EA06F0EDD310E0D0171
:1036D4009E6F0D0E9F6F010EA06F06DD150E0D017E
:1036E4009E6F060E9F6F020EA06FFEDC15CD9EFD31
:1036F40016CD9FFD17CDA0FD18CDA1FD310E0D01F6
:10370400A26F0D0EA36F94EC13F02F0E9E6F060E96
:103714009F6F010EA06FE8DC310E0D019E6F0D0E40
:103724009F6F010EA06FE0DC2A0E0D019E6F060E46
:103734009F6F020EA06FD8DCE50E0D019E6F050E83
:0A3744009F6F020EA06FD0DC120090
:10374E0078CD9EFD79CD9FFD5EDC090E0B6E1E0EB3
:10375E000C6EE40E0D6E0D2EFED70C2EFCD70B2E1E
:10376E00FAD7000017DED00E0C6EC90E0D6E0D2EA0
:10377E00FED70C2EFCD70000000070EC16F000C037
:10378E0063FD000E646F9BEC16F000C015FD01C0CA
:10379E0016FD02C017FD03C018FD2C0E9E6F070EFE
:1037AE009F6F020EA06F9BDCFC0E0D019E6F060E2E
:1037BE009F6F020EA06F93DC63CD9EFD64CD9FFDC7
:1037CE00310E0D01A06F0D0EA16F5DEC17F0B80E4E
:1037DE009E6F060E9F6F010EA06F81DC310E0D01E4
:1037EE009E6F0D0E9F6F010EA06F79DC7D0E0D0189
:1037FE009E6F060E9F6F020EA06F71DC15CD9EFDA3
:10380E0016CD9FFD17CDA0FD18CDA1FD310E0D01DA
:10381E00A26F0D0EA36F94EC13F0630E9E6F060E47
:10382E009F6F010EA06F5BDC310E0D019E6F0D0EB2
:10383E009F6F010EA06F53DCB30E0D019E6F060E2F
:10384E009F6F020EA06F4BDC830E0D019E6F060E56
:0A385E009F6F020EA06F43DC120002
:1038680049EC0FF0090E0B6E1E0E0C6EE40E0D6E79
:103878000D2EFED70C2EFCD70B2EFAD700008DDDAF
:10388800D00E0C6EC90E0D6E0D2EFED70C2EFCD769
:103898000000000070EC16F000C063FD000E646FBD
:1038A8009BEC16F000C015FD01C016FD02C017FD07
:1038B80003C018FDA8EC17F000C069FD01C06AFD3F
:1038C800F40E9E6F000E9F6F020EA06F0BDCC40EED
:1038D8000D019E6F000E9F6F020EA06F03DC63CD7B
:1038E8009EFD64CD9FFD310E0D01A06F0D0EA16FE1
:1038F8005DEC17F02A0E9E6F010E9F6F010EA06FF0
:1039080076EC18F0310E0D019E6F0D0E9F6F010EB3
:10391800A06F76EC18F0240E0D019E6F010E9F6FBC
:10392800020EA06F76EC18F015CD9EFD16CD9FFD0A
:1039380017CDA0FD18CDA1FD310E0D01A26F0D0E02
:10394800A36F94EC13F0AA0E9E6F000E9F6F010EEA
:10395800A06F76EC18F0310E0D019E6F0D0E9F6F63
:10396800010EA06F76EC18F0450E0D019E6F000E4B
:103978009F6F020EA06F76EC18F0150E0D019E6F6A
:0E398800000E9F6F020EA06F76EC18F012007A
:10399600B6EC0EF0090E0B6E1E0E0C6EE40E0D6EDE
:1039A6000D2EFED70C2EFCD70B2EFAD70000F6DC18
:1039B600D00E0C6EC90E0D6E0D2EFED70C2EFCD73A
:1039C6000000000070EC16F000C063FD000E646F8E
:1039D6009BEC16F000C015FD01C016FD02C017FDD8
:1039E60003C018FDA8EC17F000C069FD01C06AFD10
:1039F600A00E9E6F050E9F6F020EA06F76EC18F05C
:103A0600700E0D019E6F050E9F6F020EA06F76EC75
:103A160018F063CD9EFD64CD9FFD310E0D01A06FA4
:103A26000D0EA16F5DEC17F0D60E9E6F050E9F6F03
:103A3600010EA06F76EC18F0310E0D019E6F0D0E83
:103A46009F6F010EA06F76EC18F0D00E0D019E6FE1
:103A5600050E9F6F020EA06F76EC18F015CD9EFD39
:103A660016CD9FFD17CDA0FD18CDA1FD310E0D0180
:103A7600A26F0D0EA36F94EC13F0490E9E6F060E07
:103A86009F6F010EA06F76EC18F0310E0D019E6F40
:103A96000D0E9F6F010EA06F76EC18F0F70E0D015C
:103AA6009E6F060E9F6F020EA06F76EC18F0C70E83
:103AB6000D019E6F060E9F6F020EA06F76EC18F03A
:023AC6001200EC
:103AC800AAEC15F0090E0B6E1E0E0C6EE40E0D6EB0
:103AD8000D2EFED70C2EFCD70B2EFAD700007FEC4C
:103AE80016F0D00E0C6EC90E0D6E0D2EFED70C2ED4
:103AF800FCD70000000070EC16F000C063FD000E5B
:103B0800646F9BEC16F000C015FD01C016FD02C0E5
:103B180017FD03C018FDA8EC17F000C069FD01C02F
:103B28006AFD63CD9EFD64CD9FFD310EA06F0D0E25
:103B3800A16F5DEC17F05C0E9E6F070E9F6F020E73
:103B4800A06F76EC18F08C0E0D019E6F070E9F6F1C
:103B5800020EA06F76EC18F0770E0D019E6F080E1E
:103B68009F6F010EA06F76EC18F0310E0D019E6F5D
:103B78000D0E9F6F010EA06F76EC18F0860E0D01EA
:103B88009E6F080E9F6F020EA06F76EC18F015CD91
:103B98009EFD16CD9FFD17CDA0FD18CDA1FD310EC0
:103BA8000D01A26F0D0EA36F94EC13F08C0E9E6F97
:103BB800080E9F6F010EA06F76EC18F0310E0D0104
:103BC8009E6F0D0E9F6F010EA06F76EC18F0720EAF
:103BD8000D019E6F080E9F6F020EA06F76EC18F015
:103BE800110E0D019E6F080E9F6F020EA06F76ECEE
:043BF80018F01200AF
:103BFC00CD0E0D019E6FCC0E9F6F350EA06F850EF6
:103C0C00A16FA1EC12F0090E0B6E1E0E0C6EE40EE1
:103C1C000D6E0D2EFED70C2EFCD70B2EFAD70000F6
:103C2C00D1EC19F0D00E0C6EC90E0D6E0D2EFED708
:103C3C000C2EFCD70000000070EC16F000C063FDE9
:103C4C00000E646F9BEC16F000C065FD01C066FDB4
:103C5C0002C067FD03C068FDA8EC17F000C069FD49
:103C6C0001C06AFDEB0E9E6F080E9F6F020EA06FD7
:103C7C0076EC18F0AC0E0D019E6F080E9F6F020EC5
:103C8C00A06F76EC18F063CD9EFD64CD9FFD310ED8
:103C9C000D01A06F0D0EA16F5DEC17F0DC0E9E6F89
:103CAC00080E9F6F010EA06F76EC18F0310E0D010F
:103CBC009E6F0D0E9F6F010EA06F76EC18F0EC0E40
:103CCC000D019E6F070E9F6F020EA06F76EC18F021
:103CDC0065CD9EFD66CD9FFD67CDA0FD68CDA1FD98
:103CEC00310E0D01A26F0D0EA36F94EC13F0F20EBA
:103CFC009E6F070E9F6F010EA06F76EC18F0310EC1
:103D0C000D019E6F0D0E9F6F010EA06F76EC18F0DB
:103D1C000C0E0D019E6F080E9F6F020EA06F76ECBD
:103D2C0018F0BC0E0D019E6F070E9F6F020EA06F58
:063D3C0076EC18F0120005
:103D4200C8EC15F000C070FD0050000A1CE1DD0E49
:103D52000D019E6F030E9F6F020EA06F76EC18F09E
:103D62004D0E0D019E6F030E9F6F020EA06F76EC3B
:103D720018F0BD0E0D019E6F020E9F6F020EA06F16
:103D820076EC18F01BD08D0E0D019E6F020E9F6F08
:103D9200020EA06F76EC18F01D0E0D019E6F030E41
:103DA2009F6F020EA06F76EC18F0ED0E0D019E6F64
:0E3DB200020E9F6F020EA06F76EC18F012004A
:103DC00008014151000A21E13CEC18F0420E0D01BE
:103DD0009E6F080E9F6F020EA06F76EC18F01B0E00
:103DE0000D019E6F090E9F6F020EA06F76EC18F00A
:103DF0005C0E0D019E6F0B0E9F6F020EA06F76EC96
:103E000018F0010E0801416F22D04151010A1FE153
:103E100058EC18F08C0E0D019E6F0B0E9F6F020E6A
:103E2000A06F76EC18F0BC0E0D019E6F0B0E9F6F0D
:103E3000020EA06F76EC18F02C0E0D019E6F0B0E8B
:103E40009F6F020EA06F76EC18F00801416B120014
:103E50000A01FB51000A21E169CD76FD6ACD77FDAB
:103E6000FB2BFC0E0D019E6F0A0E9F6F020EA06FC2
:103E700076EC18F0AC0E0D019E6F0C0E9F6F020ECB
:103E8000A06F76EC18F07C0E0D019E6F0C0E9F6FEC
:103E9000020EA06F76EC18F06FD00A01FB51010AF8
:103EA00021E169CD7AFD6ACD7BFDFB2B1C0E0D0156
:103EB0009E6F0C0E9F6F020EA06F76EC18F0EC0E4A
:103EC0000D019E6F0B0E9F6F020EA06F76EC18F027
:103ED0004C0E0D019E6F0C0E9F6F020EA06F76ECC4
:103EE00018F04AD00A01FB51020A21E169CD78FDA0
:103EF0006ACD79FDFB2BDB0E0D019E6F090E9F6FC6
:103F0000020EA06F76EC18F00B0E0D019E6F0A0EDC
:103F10009F6F020EA06F76EC18F03B0E0D019E6FA6
:103F20000A0E9F6F020EA06F76EC18F025D00A01E2
:103F3000FB51030A21E169CD76FD6ACD77FD010EC3
:103F4000FB6FAB0E0D019E6F090E9F6F020EA06FEF
:103F500076EC18F04B0E0D019E6F090E9F6F020E4E
:103F6000A06F76EC18F07B0E0D019E6F090E9F6F0F
:0A3F7000020EA06F76EC18F01200AC
:103F7A00100E0D017C5D16E27D0ED06F0D0ED16F15
:103F8A00A5EC09F0F00E8317FF0E84177C518313FA
:103F9A00000E84137D0ED06F0D0ED16FD9EC08F090
:0A3FAA00006A02D0010E006E120042
:103FB400080E0D017C5D22E27D0ED06F0D0ED16FD7
:103FC400A5EC09F00F0E8517FF0E86177CCD00F0C7
:103FD40000360090003600900036009000360090C5
:103FE40000C07CFD00508513000E86137D0ED06F3B
:103FF4000D0ED16FD9EC08F0006A02D0010E006EEC
:024004001200A8
:1040060054EC10F0DCEC0FF07C0E0D01D06F0D0EB1
:10401600D16FA5EC09F07C0ED06F0D0ED16F050E99
:10402600D26F000ED36FFF0ED46FBF0ED56FD66B57
:10403600D76B25EC0CF07C0ED06F0D0ED16F050EF4
:10404600D26F000ED36FFF0ED46F7F0ED56F000EAA
:10405600D66F800ED76F25EC0CF07C0ED06F0D0E50
:10406600D16FD9EC08F0EAEC0FF07C0E0D01D06FA1
:104076000D0ED16FA5EC09F07C0ED06F0D0ED16F31
:10408600D26BD36BFE0ED46FFF0ED56F010ED66FBB
:10409600000ED76F25EC0CF07C0ED06F0D0ED16F95
:1040A600D26BD36BBF0ED46FFF0ED56FD66BD76BAB
:1040B60025EC0CF07C0ED06F0D0ED16FD26BD36B4E
:1040C600FF0ED46FBF0ED56F000ED66F400ED76FA2
:1040D60025EC0CF07C0ED06F0D0ED16FD9EC08F0EC
:0640E600DCEC0FF01200FB
:1040EC007C0E0D01D06F0D0ED16FA5EC09F07C0E7E
:1040FC00D06F0D0ED16FD26BD36BFF0ED46F7F0EC2
:10410C00D56F000ED66F800ED76F25EC0CF07C0EA1
:10411C00D06F0D0ED16FD26BD36BFF0ED46FBF0E61
:10412C00D56F000ED66F400ED76F25EC0CF07C0EC1
:10413C00D06F0D0ED16FD26BD36BFF0ED46FDF0E21
:10414C00D56FD66BD76B25EC0CF07C0ED06F0D0EAB
:10415C00D16FD26BD36BFF0ED46FF70ED56FD66BBE
:10416C00D76B25EC0CF07C0ED06F0D0ED16FD26B93
:10417C00D36BFF0ED46FFB0ED56FD66BD76B25ECC4
:10418C000CF07C0ED06F0D0ED16FD26BD36BFF0E7B
:10419C00D46FFD0ED56F000ED66F020ED76F25ECC7
:1041AC000CF07C0ED06F0D0ED16FD26BD36BFF0E5B
:1041BC00D46FFE0ED56FD66BD76B25EC0CF07C0E46
:1041CC00D06F0D0ED16FD26BD36BBF0ED46FFF0EB1
:1041DC00D56FD66BD76B25EC0CF07C0ED06F0D0E1B
:1041EC00D16FD26BD36BFE0ED46FFF0ED56F010E59
:1041FC00D66F000ED76F25EC0CF07C0ED06F0D0E29
:10420C00D16F010ED26F000ED36FFF0ED46F7F0EE5
:10421C00D56FD66BD76B25EC0CF07C0ED06F0D0EDA
:10422C00D16F020ED26F000ED36FFF0ED46F7F0EC4
:10423C00D56FD66BD76B25EC0CF07C0ED06F0D0EBA
:10424C00D16F020ED26F000ED36FFF0ED46FBF0E64
:10425C00D56F000ED66F400ED76F25EC0CF07C0E90
:10426C00D06F0D0ED16F020ED26F000ED36FFF0EFA
:10427C00D46FEF0ED56FD66BD76B25EC0CF07C0E94
:10428C00D06F0D0ED16F020ED26F000ED36FFF0EDA
:10429C00D46FF70ED56F000ED66F080ED76F25ECC6
:1042AC000CF07C0ED06F0D0ED16F020ED26F000E83
:1042BC00D36FFF0ED46FFB0ED56FD66BD76B25EC7F
:1042CC000CF07C0ED06F0D0ED16F020ED26F000E63
:1042DC00D36F3F0ED46FFF0ED56FD66BD76B25EC1B
:1042EC000CF07C0ED06F0D0ED16F020ED26F000E43
:1042FC00D36FCF0ED46FFF0ED56FD66BD76B25EC6B
:10430C000CF07C0ED06F0D0ED16F020ED26F000E22
:10431C00D36FF30ED46FFF0ED56F040ED66F000E55
:10432C00D76F25EC0CF07C0ED06F0D0ED16F020EFA
:10433C00D26F000ED36FFC0ED46FFF0ED56FD66B01
:10434C00D76B25EC0CF07C0ED06F0D0ED16F030EDD
:10435C00D26F000ED36F3F0ED46FFF0ED56FD66B9E
:10436C00D76B25EC0CF07C0ED06F0D0ED16F030EBD
:10437C00D26F000ED36FCF0ED46FFF0ED56F100E11
:10438C00D66F000ED76F25EC0CF07C0ED06F0D0E97
:10439C00D16F040ED26F000ED36FFF0ED46F3F0E91
:1043AC00D56FD66BD76B25EC0CF07C0ED06F0D0E49
:1043BC00D16F040ED26F000ED36FFF0ED46FCF0EE1
:1043CC00D56FD66BD76B25EC0CF07C0ED06F0D0E29
:1043DC00D16F040ED26F000ED36FFF0ED46FFE0E92
:1043EC00D56FD66BD76B25EC0CF07C0ED06F0D0E09
:0843FC00D16FD9EC08F01200AA
:10440400000E0D017D5D02E1800E7C5D1DE27E0EDD
:10441400D06F0D0ED16FA5EC09F0FF0E8417000EBE
:1044240085177CCD01F0006A00C07CFD01C07DFDD4
:1044340000508413015085137E0ED06F0D0ED16F82
:0E444400D9EC08F0006A02D0010E006E1200E2
:1044520062EC11F000C070FD0050000A1CE16B0E0E
:104462000D019E6F0A0E9F6F020EA06F76EC18F080
:10447200CB0E0D019E6F0A0E9F6F020EA06F76EC9F
:1044820018F09B0E0D019E6F0A0E9F6F020EA06F19
:1044920076EC18F01BD0AD0E0D019E6F030E9F6FD0
:1044A200020EA06F76EC18F07D0E0D019E6F030ECA
:1044B2009F6F020EA06F76EC18F00D0E0D019E6F2D
:0E44C200040E9F6F020EA06F76EC18F0120031
:1044D0003E0E0D019E6F040E9F6F020EA06F76ECD4
:1044E00018F0CE0E0D019E6F040E9F6F020EA06F8E
:1044F00076EC18F09E0E0D019E6F040E9F6F020E5B
:08450000A06F76EC18F0120028
:10450800100E0D017C5D16E27D0ED06F0D0ED16F81
:10451800A5EC09F0F00E8517FF0E86177C51851360
:10452800000E86137D0ED06F0D0ED16FD9EC08F0FA
:0A453800006A02D0010E006E1200AE
:104542000D017C6B7D6B010E7E6F02EC1AF00D018A
:104552007C6B010E7D6F7E6B02EC1AF00D017C6BA1
:10456200020E7D6F7E6B02EC1AF00D017C6B070E62
:104572007D6F010E7E6F02EC1AF00D017C6B990EBD
:104582007D6F540E7E6F000E7F6F64EC1AF0100E7A
:104592000D017C6F000E7D6FC20E7E6F010E7F6F6C
:1045A200000E806F25EC1AF0090E0B6E1E0E0C6EBB
:1045B200E40E0D6E0D2EFED70C2EFCD70B2EFAD765
:1045C20000007A0E0D019E6F000E9F6F020EA06F0B
:1045D20076EC18F04A0E0D019E6F000E9F6F020ED0
:1045E200A06F76EC18F0390E0D019E6F010E9F6FD1
:0A45F200020EA06F76EC18F0120024
:1045FC000900F5CFE6FF0006FBE10106F9E1120028
:10460C0072CD00F073CD01F019EC01F000C06BFD20
:10461C000050000A4DE06CCD00F06DCD01F019ECAE
:10462C0001F000C071FD21D00EDF42D0A1EC1EF0D4
:10463C003FD064EC1DF03CD0FEEC1DF039D002DC18
:10464C0037D0E0EC1EF034D01AEC1BF031D08EECED
:10465C001AF02ED0A7EC1BF02BD0CBEC1CF028D0F2
:10466C0034EC1CF025D02EDF23D00D0171512B0A18
:10467C00DBE071512D0ADAE07151730ADAE0715105
:10468C00740ADAE071516D0ADAE07151690AD9E005
:10469C007151310AD9E07151320AD9E07151330AA2
:1046AC00D9E071512E0AD9E071512C0AD9E0DBD72F
:0246BC001200EA
:1046BE00250E0D017C6F540E7D6F000E7E6F850EE4
:1046CE007F6F540E806F000E816F100E826FEFECB5
:1046DE0019F0290E0B6E960E0C6E7F0E0D6E0D2EB2
:1046EE00FED70C2EFCD70B2EFAD786DCF8DC3DC499
:1046FE007CFD3CDC30C57CFD56DC2EC57CFD2FC51B
:10470E007DFD79DE61C57CFDF8DE310E0D019E6FFB
:10471E00050E9F6F020EA06F76EC18F0FE0E0D01C7
:10472E009E6F040E9F6F020EA06F76EC18F06E0E49
:10473E000D019E6F040E9F6F020EA06F76EC18F0A7
:02474E00120057
:0E4750004FEC2AF0F6DEB3DF59DFFED7FFD7BD
:10549E0010EE15F0C70E006E0D0E016E5E0EF66E5E
:0E54AE00470EF76E000EF86EFEEC22F01200B4
:10475E002020202A2A2A2A2A2A2A2A2A2A2A2A2AC9
:10476E002A2A2A2A2A2A2A2A2A2A2A2A2A2A2A2A9B
:10477E002A2A2A2A2A2A2A2A2A2A2A2A2A202000C9
:05478E00204D487A00F7
:104793002020202A202020202073797374656D2027
:1047A300696E697420646F6E6520202020202020AC
:1047B3002020202020202020202020202A2020000C
:1047C3002020202A2A2A2A2A2A2A2A2A2A2A2A2A64
:1047D3002A2A2A2A2A2A2A2A2A2A2A2A2A2A2A2A36
:1047E3002A2A2A2A2A2A2A2A2A2A2A2A2A20200064
:1047F3002020202A202020202074756E65642066E6
:0A48030072657175656E63793A0005
:10480D002020202A202020202074756E6520646FC2
:10481D00776E2020202020202020202020202020E6
:10482D002020202020202020202020202A20200091
:10483D002020202A2A2A2A2A2A2A2A2A2A2A2A2AE9
:10484D002A2A2A2A2A2A2A2A2A2A2A2A2A2A2A2ABB
:10485D002A2A2A2A2A2A2A2A2A2A2A2A2A202000E9
:06486D00206442755600B4
:0F4873002020202A2020202020727373693A0011
:104882002020202A2A2A2A2A2A2A2A2A2A2A2A2AA4
:104892002A2A2A2A2A2A2A2A2A2A2A2A2A2A2A2A76
:1048A2002A2A2A2A2A2A2A2A2A2A2A2A2A202000A4
:1048B2002020202A2A2A2A2A2A2A2A2A2A2A2A2A74
:1048C2002A2A2A2A2A2A2A2A2A2A2A2A2A2A2A2A46
:1048D2002A2A2A2A2A2A2A2A2A2A2A2A2A20200074
:0548E200204D487A00A2
:1048E7002020202A202020202073746174696F6E95
:1048F70020312074756E6564202020202020202020
:104907002020202020202020202020202A202000B6
:104917002020202A2A2A2A2A2A2A2A2A2A2A2A2A0E
:104927002A2A2A2A2A2A2A2A2A2A2A2A2A2A2A2AE0
:104937002A2A2A2A2A2A2A2A2A2A2A2A2A2020000E
:104947002020202A202020202074756E6564206690
:0A49570072657175656E63793A00B0
:104961002020202A202020202073746174696F6E1A
:1049710020322074756E65642020202020202020A4
:104981002020202020202020202020202A2020003C
:104991002020202A2A2A2A2A2A2A2A2A2A2A2A2A94
:1049A1002A2A2A2A2A2A2A2A2A2A2A2A2A2A2A2A66
:1049B1002A2A2A2A2A2A2A2A2A2A2A2A2A20200094
:0649C1002064427556005F
:0F49C7002020202A2020202020727373693A00BC
:1049D6002020202A2A2A2A2A2A2A2A2A2A2A2A2A4F
:1049E6002A2A2A2A2A2A2A2A2A2A2A2A2A2A2A2A21
:1049F6002A2A2A2A2A2A2A2A2A2A2A2A2A2020004F
:104A06002020202A2A2A2A2A2A2A2A2A2A2A2A2A1E
:104A16002A2A2A2A2A2A2A2A2A2A2A2A2A2A2A2AF0
:104A26002A2A2A2A2A2A2A2A2A2A2A2A2A2020001E
:104A36002020202A2A2A2A2A2A2A2A2A2A2A2A2AEE
:104A46002A2A2A2A2A2A2A2A2A2A2A2A2A2A2A2AC0
:104A56002A2A2A2A2A2A2A2A2A2A2A2A2A202000EE
:104A66002020202A2020202020766F6C756D65205E
:104A76006D696E202020202020202020202020204C
:104A86002020202020202020202020202A20200036
:104A96002020202A2020202020766F6C756D65202E
:104AA600646F776E202020202020202020202020C8
:104AB6002020202020202020202020202A20200006
:104AC6002020202A2020202020766F6C756D6520FE
:104AD6006D617820202020202020202020202020EA
:104AE6002020202020202020202020202A202000D6
:104AF6002020202A2A2A2A2A2A2A2A2A2A2A2A2A2E
:104B06002A2A2A2A2A2A2A2A2A2A2A2A2A2A2A2AFF
:104B16002A2A2A2A2A2A2A2A2A2A2A2A2A2020002D
:104B26002020202A2A2A2A2A2A2A2A2A2A2A2A2AFD
:104B36002A2A2A2A2A2A2A2A2A2A2A2A2A2A2A2ACF
:104B46002A2A2A2A2A2A2A2A2A2A2A2A2A202000FD
:104B56002020202A2A2A2A2A2A2A2A2A2A2A2A2ACD
:104B66002A2A2A2A2A2A2A2A2A2A2A2A2A2A2A2A9F
:104B76002A2A2A2A2A2A2A2A2A2A2A2A2A202000CD
:014B86000A24
:104B87002020202A2A2A2A2A2A2A2A2A2A2A2A2A9C
:104B97002A2A2A2A2A2A2A2A2A2A2A2A2A2A2A2A6E
:104BA7002A2A2A2A2A2A2A2A2A2A2A2A2A2020009C
:104BB7002020202A2A2A2A2A2A2A2A2A2A2A2A2A6C
:104BC7002A2A2A2A2A2A2A2A2A2A2A2A2A2A2A2A3E
:104BD7002A2A2A2A2A2A2A2A2A2A2A2A2A2020006C
:104BE7002020202A2A2A2A2A2A2A2A2A2A2A2A2A3C
:104BF7002A2A2A2A2A2A2A2A2A2A2A2A2A2A2A2A0E
:104C07002A2A2A2A2A2A2A2A2A2A2A2A2A2020003B
:104C17002020202A202020202077726F6E672063B3
:104C27006F6D6D616E6420202020202020202020C1
:104C37002020202020202020202020202A20200083
:104C47002020202A20202020206170706C69636159
:104C570074696F6E20696E697420646F6E652020B9
:104C67002020202020202020202020202A20200053
:024C7700190022
:014C79000436
:104C7A002020202A2A2A2A2A2A2A2A2A2A2A2A2AA8
:104C8A002A2A2A2A2A2A2A2A2A2A2A2A2A2A2A2A7A
:104C9A002A2A2A2A2A2A2A2A2A2A2A2A2A202000A8
:014CAA000801
:024CAB003000D7
:044CAD00494E460026
:044CB1004E614E0002
:044CB50000000000FB
:104CB9002020202A202020202074756E6520757000
:104CC90020202020202020202020202020202020DB
:104CD9002020202020202020202020202A202000E1
:104CE9002020202A2A2A2A2A2A2A2A2A2A2A2A2A39
:104CF9002A2A2A2A2A2A2A2A2A2A2A2A2A2A2A2A0B
:104D09002A2A2A2A2A2A2A2A2A2A2A2A2A20200038
:064D190020644275560003
:0F4D1F002020202A2020202020727373693A0060
:104D2E002020202A2A2A2A2A2A2A2A2A2A2A2A2AF3
:104D3E002A2A2A2A2A2A2A2A2A2A2A2A2A2A2A2AC5
:104D4E002A2A2A2A2A2A2A2A2A2A2A2A2A202000F3
:064D5E00206442755600BE
:0F4D64002020202A2020202020727373693A001B
:054D7300204D487A000C
:104D78002020202A202020202074756E656420665B
:0A4D880072657175656E63793A007B
:104D92002020202A202020202074756E6564206641
:0A4DA20072657175656E63793A0061
:104DAC002020202A202020202074756E6564206627
:0A4DBC0072657175656E63793A0047
:064DC60020644275560056
:104DCC002020202A2A2A2A2A2A2A2A2A2A2A2A2A55
:104DDC002A2A2A2A2A2A2A2A2A2A2A2A2A2A2A2A27
:104DEC002A2A2A2A2A2A2A2A2A2A2A2A2A20200055
:054DFC00204D487A0083
:0F4E01002020202A2020202020727373693A007D
:104E10002020202A2A2A2A2A2A2A2A2A2A2A2A2A10
:104E20002A2A2A2A2A2A2A2A2A2A2A2A2A2A2A2AE2
:104E30002A2A2A2A2A2A2A2A2A2A2A2A2A20200010
:054E4000204D487A003E
:104E45002020202A202020202073746174696F6E31
:104E550020332074756E65642020202020202020BA
:104E65002020202020202020202020202A20200053
:104E75002020202A2A2A2A2A2A2A2A2A2A2A2A2AAB
:104E85002A2A2A2A2A2A2A2A2A2A2A2A2A2A2A2A7D
:104E95002A2A2A2A2A2A2A2A2A2A2A2A2A202000AB
:104EA5002020202A2A2A2A2A2A2A2A2A2A2A2A2A7B
:104EB5002A2A2A2A2A2A2A2A2A2A2A2A2A2A2A2A4D
:104EC5002A2A2A2A2A2A2A2A2A2A2A2A2A2020007B
:104ED5002020202A202020202073746174696F6EA1
:104EE50020666F756E642020202020202020202041
:104EF5002020202020202020202020202A202000C3
:104F05002020202A2A2A2A2A2A2A2A2A2A2A2A2A1A
:104F15002A2A2A2A2A2A2A2A2A2A2A2A2A2A2A2AEC
:104F25002A2A2A2A2A2A2A2A2A2A2A2A2A2020001A
:064F3500206442755600E5
:104F3B002020202A202020202074756E6564206696
:0A4F4B0072657175656E63793A00B6
:054F5500204D487A0028
:104F5A002020202A2A2A2A2A2A2A2A2A2A2A2A2AC5
:104F6A002A2A2A2A2A2A2A2A2A2A2A2A2A2A2A2A97
:104F7A002A2A2A2A2A2A2A2A2A2A2A2A2A202000C5
:014F8A000026
:104F8B002020202A2A2A2A2A2A2A2A2A2A2A2A2A94
:104F9B002A2A2A2A2A2A2A2A2A2A2A2A2A2A2A2A66
:104FAB002A2A2A2A2A2A2A2A2A2A2A2A2A20200094
:054FBB00204D487A00C2
:0F4FC0002020202A2020202020727373693A00BD
:064FCF002064427556004B
:104FD5002020202A20202020206368616E6E656CC9
:0C4FE500206672657175656E63793A0094
:044FF10000000000BC
:104FF5002020202A202020202074756E6520636FD4
:105005006D706C65746520202020202020202020D4
:105015002020202020202020202020202A202000A1
:0F5025002020202A2020202020727373693A0057
:105034002020202A2A2A2A2A2A2A2A2A2A2A2A2AEA
:105044002A2A2A2A2A2A2A2A2A2A2A2A2A2A2A2ABC
:105054002A2A2A2A2A2A2A2A2A2A2A2A2A202000EA
:105064002020202A20202020206D75746520656E64
:1050740061626C65642020202020202020202020D4
:105084002020202020202020202020202A20200032
:105094002020202A202020202073746174696F6EE0
:1050A4002031206D656D6F72697A6564202020203F
:1050B4002020202020202020202020202A20200002
:1050C4002020202A2A2A2A2A2A2A2A2A2A2A2A2A5A
:1050D4002A2A2A2A2A2A2A2A2A2A2A2A2A2A2A2A2C
:1050E4002A2A2A2A2A2A2A2A2A2A2A2A2A2020005A
:1050F4002020202A2A2A2A2A2A2A2A2A2A2A2A2A2A
:105104002A2A2A2A2A2A2A2A2A2A2A2A2A2A2A2AFB
:105114002A2A2A2A2A2A2A2A2A2A2A2A2A20200029
:105124002020202A2A2A2A2A2A2A2A2A2A2A2A2AF9
:105134002A2A2A2A2A2A2A2A2A2A2A2A2A2A2A2ACB
:105144002A2A2A2A2A2A2A2A2A2A2A2A2A202000F9
:105154002020202A202020202073746174696F6E1F
:105164002033206D656D6F72697A6564202020207C
:105174002020202020202020202020202A20200041
:105184002020202A2A2A2A2A2A2A2A2A2A2A2A2A99
:105194002A2A2A2A2A2A2A2A2A2A2A2A2A2A2A2A6B
:1051A4002A2A2A2A2A2A2A2A2A2A2A2A2A20200099
:1051B4002020202A2A2A2A2A2A2A2A2A2A2A2A2A69
:1051C4002A2A2A2A2A2A2A2A2A2A2A2A2A2A2A2A3B
:1051D4002A2A2A2A2A2A2A2A2A2A2A2A2A20200069
:1051E4002020202A2A2A2A2A2A2A2A2A2A2A2A2A39
:1051F4002A2A2A2A2A2A2A2A2A2A2A2A2A2A2A2A0B
:105204002A2A2A2A2A2A2A2A2A2A2A2A2A20200038
:105214002020202A2020202020766F6C756D6520A8
:1052240075702020202020202020202020202020D5
:105234002020202020202020202020202A20200080
:015244000069
:105245002020202A2A2A2A2A2A2A2A2A2A2A2A2AD7
:105255002A2A2A2A2A2A2A2A2A2A2A2A2A2A2A2AA9
:105265002A2A2A2A2A2A2A2A2A2A2A2A2A202000D7
:105275002020202A2A2A2A2A2A2A2A2A2A2A2A2AA7
:105285002A2A2A2A2A2A2A2A2A2A2A2A2A2A2A2A79
:105295002A2A2A2A2A2A2A2A2A2A2A2A2A202000A7
:1052A5002020202A2A2A2A2A2A2A2A2A2A2A2A2A77
:1052B5002A2A2A2A2A2A2A2A2A2A2A2A2A2A2A2A49
:1052C5002A2A2A2A2A2A2A2A2A2A2A2A2A20200077
:1052D5002020202A2A2A2A2A2A2A2A2A2A2A2A2A47
:1052E5002A2A2A2A2A2A2A2A2A2A2A2A2A2A2A2A19
:1052F5002A2A2A2A2A2A2A2A2A2A2A2A2A20200047
:105305002020202A20202020206D757465206469C6
:105315007361626C656420202020202020202020DD
:105325002020202020202020202020202A2020008E
:105335002020202A202020202073746174696F6E3C
:105345002032206D656D6F72697A6564202020209A
:105355002020202020202020202020202A2020005E
:105365002020202A2A2A2A2A2A2A2A2A2A2A2A2AB6
:105375002A2A2A2A2A2A2A2A2A2A2A2A2A2A2A2A88
:105385002A2A2A2A2A2A2A2A2A2A2A2A2A202000B6
:105395002020202A2A2A2A2A2A2A2A2A2A2A2A2A86
:1053A5002A2A2A2A2A2A2A2A2A2A2A2A2A2A2A2A58
:1053B5002A2A2A2A2A2A2A2A2A2A2A2A2A20200086
:1053C5002020202A2A2A2A2A2A2A2A2A2A2A2A2A56
:1053D5002A2A2A2A2A2A2A2A2A2A2A2A2A2A2A2A28
:1053E5002A2A2A2A2A2A2A2A2A2A2A2A2A20200056
:1053F5002020202A202020202073746174696F6E7C
:105405002031206D656D6F72697A656420202020DA
:105415002020202020202020202020202A2020009D
:10542500A601240E9801240E6C01240E4201240EBF
:105435003401240E5E01240E5001240E0802240EB0
:10544500FA01240E2402240E1602240EEC01240E69
:10545500320300003E05000082030000280300001F
:105465005A030000F60200001E030000640300005A
:105475006E0300003C0300004603000050030000DB
:10548500BE080000F40700009C07000048051E0E3A
:04549500B0031E0E34
:04549900A0860100E8
:020000040030CA
:0E00000015137F7CF98B91FFFFC0FFE0FF40DE
:00000001FF
